{
  "_format": "hh-sol-artifact-1",
  "contractName": "CertificateChain",
  "sourceName": "contracts/CertificateChain.sol",
  "abi": [
    {
      "inputs": [],
      "stateMutability": "nonpayable",
      "type": "constructor"
    },
    {
      "anonymous": false,
      "inputs": [
        {
          "indexed": true,
          "internalType": "bytes32",
          "name": "certId",
          "type": "bytes32"
        },
        {
          "indexed": false,
          "internalType": "bytes32",
          "name": "chainedHash",
          "type": "bytes32"
        },
        {
          "indexed": true,
          "internalType": "address",
          "name": "issuer",
          "type": "address"
        },
        {
          "indexed": false,
          "internalType": "uint256",
          "name": "timestamp",
          "type": "uint256"
        }
      ],
      "name": "CertificateIssued",
      "type": "event"
    },
    {
      "anonymous": false,
      "inputs": [
        {
          "indexed": true,
          "internalType": "bytes32",
          "name": "certId",
          "type": "bytes32"
        }
      ],
      "name": "CertificateRevoked",
      "type": "event"
    },
    {
      "anonymous": false,
      "inputs": [
        {
          "indexed": true,
          "internalType": "address",
          "name": "issuer",
          "type": "address"
        }
      ],
      "name": "IssuerAuthorized",
      "type": "event"
    },
    {
      "anonymous": false,
      "inputs": [
        {
          "indexed": true,
          "internalType": "address",
          "name": "issuer",
          "type": "address"
        }
      ],
      "name": "IssuerDeauthorized",
      "type": "event"
    },
    {
      "inputs": [],
      "name": "admin",
      "outputs": [
        {
          "internalType": "address",
          "name": "",
          "type": "address"
        }
      ],
      "stateMutability": "view",
      "type": "function"
    },
    {
      "inputs": [
        {
          "internalType": "address",
          "name": "_issuer",
          "type": "address"
        }
      ],
      "name": "authorizeIssuer",
      "outputs": [],
      "stateMutability": "nonpayable",
      "type": "function"
    },
    {
      "inputs": [
        {
          "internalType": "address",
          "name": "",
          "type": "address"
        }
      ],
      "name": "authorizedIssuers",
      "outputs": [
        {
          "internalType": "bool",
          "name": "",
          "type": "bool"
        }
      ],
      "stateMutability": "view",
      "type": "function"
    },
    {
      "inputs": [
        {
          "internalType": "bytes32",
          "name": "",
          "type": "bytes32"
        }
      ],
      "name": "certificates",
      "outputs": [
        {
          "internalType": "bytes32",
          "name": "chainedHash",
          "type": "bytes32"
        },
        {
          "internalType": "address",
          "name": "issuer",
          "type": "address"
        },
        {
          "internalType": "uint256",
          "name": "timestamp",
          "type": "uint256"
        },
        {
          "internalType": "bool",
          "name": "isRevoked",
          "type": "bool"
        }
      ],
      "stateMutability": "view",
      "type": "function"
    },
    {
      "inputs": [
        {
          "internalType": "address",
          "name": "_issuer",
          "type": "address"
        }
      ],
      "name": "deauthorizeIssuer",
      "outputs": [],
      "stateMutability": "nonpayable",
      "type": "function"
    },
    {
      "inputs": [
        {
          "internalType": "bytes32",
          "name": "certId",
          "type": "bytes32"
        },
        {
          "internalType": "bytes32",
          "name": "payloadHash",
          "type": "bytes32"
        }
      ],
      "name": "issueCertificate",
      "outputs": [],
      "stateMutability": "nonpayable",
      "type": "function"
    },
    {
      "inputs": [
        {
          "internalType": "address",
          "name": "",
          "type": "address"
        }
      ],
      "name": "lastCertHash",
      "outputs": [
        {
          "internalType": "bytes32",
          "name": "",
          "type": "bytes32"
        }
      ],
      "stateMutability": "view",
      "type": "function"
    },
    {
      "inputs": [
        {
          "internalType": "bytes32",
          "name": "certId",
          "type": "bytes32"
        }
      ],
      "name": "revokeCertificate",
      "outputs": [],
      "stateMutability": "nonpayable",
      "type": "function"
    },
    {
      "inputs": [
        {
          "internalType": "bytes32",
          "name": "certId",
          "type": "bytes32"
        }
      ],
      "name": "verifyCertificate",
      "outputs": [
        {
          "internalType": "bool",
          "name": "exists",
          "type": "bool"
        },
        {
          "internalType": "bytes32",
          "name": "chainedHash",
          "type": "bytes32"
        },
        {
          "internalType": "address",
          "name": "issuer",
          "type": "address"
        },
        {
          "internalType": "uint256",
          "name": "timestamp",
          "type": "uint256"
        },
        {
          "internalType": "bool",
          "name": "isRevoked",
          "type": "bool"
        }
      ],
      "stateMutability": "view",
      "type": "function"
    }
  ],
  "bytecode": "0x608060405234801561000f575f80fd5b505f80546001600160a01b0319163390811782558152600360205260409020805460ff19166001179055610788806100465f395ff3fe608060405234801561000f575f80fd5b5060043610610090575f3560e01c8063850c176811610063578063850c17681461014057806396c735341461018d578063c6cbc52a146101ba578063f731fa0f146101cd578063f851a440146101ff575f80fd5b80633a71daf414610094578063436693d5146100a957806357bcf883146100bc578063742f0688146100cf575b5f80fd5b6100a76100a23660046106ee565b610229565b005b6100a76100b73660046106ee565b6102bb565b6100a76100ca36600461071b565b61034b565b6101116100dd36600461073b565b600260208190525f9182526040909120805460018201549282015460039092015490926001600160a01b0316919060ff1684565b604080519485526001600160a01b03909316602085015291830152151560608201526080015b60405180910390f35b61015361014e36600461073b565b6104f1565b60408051951515865260208601949094526001600160a01b039092169284019290925260608301919091521515608082015260a001610137565b6101ac61019b3660046106ee565b60016020525f908152604090205481565b604051908152602001610137565b6100a76101c836600461073b565b61058a565b6101ef6101db3660046106ee565b60036020525f908152604090205460ff1681565b6040519015158152602001610137565b5f54610211906001600160a01b031681565b6040516001600160a01b039091168152602001610137565b5f546001600160a01b031633146102735760405162461bcd60e51b81526020600482015260096024820152682737ba1030b236b4b760b91b60448201526064015b60405180910390fd5b6001600160a01b0381165f81815260036020526040808220805460ff19169055517f8f3e6dced744d75443e2f2eb94962b368491dc80ec07cd3a3f7896069b6c452c9190a250565b5f546001600160a01b031633146103005760405162461bcd60e51b81526020600482015260096024820152682737ba1030b236b4b760b91b604482015260640161026a565b6001600160a01b0381165f81815260036020526040808220805460ff19166001179055517f8b4006ca14f23d4e7aa8d120d1ab7c3761d650eefac1a5d6732dbea94b54ea249190a250565b335f9081526003602052604090205460ff1661039a5760405162461bcd60e51b815260206004820152600e60248201526d139bdd08185d5d1a1bdc9a5e995960921b604482015260640161026a565b5f8281526002602081905260409091200154156103f95760405162461bcd60e51b815260206004820152601d60248201527f436572746966696361746520494420616c726561647920657869737473000000604482015260640161026a565b335f9081526001602090815260408083205481519283018590529082015260600160408051808303601f19018152828252805160209182012060808401835280845233828501818152428686018181525f606089018181528c825260028089528983209a518b5594516001808c0180546001600160a01b0319166001600160a01b03909316929092179091559251948a019490945592516003909801805460ff191698151598909817909755828252958452849020829055835182815292830194909452935085917fed3fb0c3a9605cec9da0b1495110aef1662946be8847255ab558d1e67b0bf992910160405180910390a3505050565b5f81815260026020818152604080842081516080810183528154815260018201546001600160a01b0316938101939093529283015490820181905260039092015460ff1615156060820152829182918291829190820361056057505f9450849350839250829150819050610581565b6001815f015182602001518360400151846060015195509550955095509550505b91939590929450565b5f8181526002602081905260408220908101549091036105ec5760405162461bcd60e51b815260206004820152601a60248201527f436572746966696361746520646f6573206e6f74206578697374000000000000604482015260640161026a565b60018101546001600160a01b031633148061061057505f546001600160a01b031633145b61065c5760405162461bcd60e51b815260206004820152601f60248201527f4f6e6c7920697373756572206f722061646d696e2063616e207265766f6b6500604482015260640161026a565b600381015460ff16156106b15760405162461bcd60e51b815260206004820152601b60248201527f436572746966696361746520616c7265616479207265766f6b65640000000000604482015260640161026a565b60038101805460ff1916600117905560405182907f44d80a438cb4fa3b5aedbe551ce3d9382e37f446917b783e1dee70a03b4180e3905f90a25050565b5f602082840312156106fe575f80fd5b81356001600160a01b0381168114610714575f80fd5b9392505050565b5f806040838503121561072c575f80fd5b50508035926020909101359150565b5f6020828403121561074b575f80fd5b503591905056fea26469706673582212207b940e88bca16b0f68b6ff088b35906399f7bb81b33f4f50ee20d3c8781ae25e64736f6c63430008180033",
  "linkReferences": {},
  "deployedLinkReferences": {}
}