{
  "_format": "hh-sol-artifact-1",
  "contractName": "CertSBT",
  "sourceName": "contracts/CertSBT.sol",
  "abi": [
    {
      "inputs": [],
      "stateMutability": "nonpayable",
      "type": "constructor"
    },
    {
      "inputs": [
        {
          "internalType": "address",
          "name": "sender",
          "type": "address"
        },
        {
          "internalType": "uint256",
          "name": "tokenId",
          "type": "uint256"
        },
        {
          "internalType": "address",
          "name": "owner",
          "type": "address"
        }
      ],
      "name": "ERC721IncorrectOwner",
      "type": "error"
    },
    {
      "inputs": [
        {
          "internalType": "address",
          "name": "operator",
          "type": "address"
        },
        {
          "internalType": "uint256",
          "name": "tokenId",
          "type": "uint256"
        }
      ],
      "name": "ERC721InsufficientApproval",
      "type": "error"
    },
    {
      "inputs": [
        {
          "internalType": "address",
          "name": "approver",
          "type": "address"
        }
      ],
      "name": "ERC721InvalidApprover",
      "type": "error"
    },
    {
      "inputs": [
        {
          "internalType": "address",
          "name": "operator",
          "type": "address"
        }
      ],
      "name": "ERC721InvalidOperator",
      "type": "error"
    },
    {
      "inputs": [
        {
          "internalType": "address",
          "name": "owner",
          "type": "address"
        }
      ],
      "name": "ERC721InvalidOwner",
      "type": "error"
    },
    {
      "inputs": [
        {
          "internalType": "address",
          "name": "receiver",
          "type": "address"
        }
      ],
      "name": "ERC721InvalidReceiver",
      "type": "error"
    },
    {
      "inputs": [
        {
          "internalType": "address",
          "name": "sender",
          "type": "address"
        }
      ],
      "name": "ERC721InvalidSender",
      "type": "error"
    },
    {
      "inputs": [
        {
          "internalType": "uint256",
          "name": "tokenId",
          "type": "uint256"
        }
      ],
      "name": "ERC721NonexistentToken",
      "type": "error"
    },
    {
      "anonymous": false,
      "inputs": [
        {
          "indexed": true,
          "internalType": "address",
          "name": "owner",
          "type": "address"
        },
        {
          "indexed": true,
          "internalType": "address",
          "name": "approved",
          "type": "address"
        },
        {
          "indexed": true,
          "internalType": "uint256",
          "name": "tokenId",
          "type": "uint256"
        }
      ],
      "name": "Approval",
      "type": "event"
    },
    {
      "anonymous": false,
      "inputs": [
        {
          "indexed": true,
          "internalType": "address",
          "name": "owner",
          "type": "address"
        },
        {
          "indexed": true,
          "internalType": "address",
          "name": "operator",
          "type": "address"
        },
        {
          "indexed": false,
          "internalType": "bool",
          "name": "approved",
          "type": "bool"
        }
      ],
      "name": "ApprovalForAll",
      "type": "event"
    },
    {
      "anonymous": false,
      "inputs": [
        {
          "indexed": true,
          "internalType": "address",
          "name": "student",
          "type": "address"
        },
        {
          "indexed": false,
          "internalType": "uint256",
          "name": "tokenId",
          "type": "uint256"
        },
        {
          "indexed": false,
          "internalType": "string",
          "name": "uri",
          "type": "string"
        }
      ],
      "name": "SBTMinted",
      "type": "event"
    },
    {
      "anonymous": false,
      "inputs": [
        {
          "indexed": true,
          "internalType": "address",
          "name": "from",
          "type": "address"
        },
        {
          "indexed": true,
          "internalType": "address",
          "name": "to",
          "type": "address"
        },
        {
          "indexed": true,
          "internalType": "uint256",
          "name": "tokenId",
          "type": "uint256"
        }
      ],
      "name": "Transfer",
      "type": "event"
    },
    {
      "inputs": [
        {
          "internalType": "address",
          "name": "to",
          "type": "address"
        },
        {
          "internalType": "uint256",
          "name": "tokenId",
          "type": "uint256"
        }
      ],
      "name": "approve",
      "outputs": [],
      "stateMutability": "nonpayable",
      "type": "function"
    },
    {
      "inputs": [
        {
          "internalType": "address",
          "name": "owner",
          "type": "address"
        }
      ],
      "name": "balanceOf",
      "outputs": [
        {
          "internalType": "uint256",
          "name": "",
          "type": "uint256"
        }
      ],
      "stateMutability": "view",
      "type": "function"
    },
    {
      "inputs": [
        {
          "internalType": "uint256",
          "name": "tokenId",
          "type": "uint256"
        }
      ],
      "name": "getApproved",
      "outputs": [
        {
          "internalType": "address",
          "name": "",
          "type": "address"
        }
      ],
      "stateMutability": "view",
      "type": "function"
    },
    {
      "inputs": [
        {
          "internalType": "address",
          "name": "owner",
          "type": "address"
        },
        {
          "internalType": "address",
          "name": "operator",
          "type": "address"
        }
      ],
      "name": "isApprovedForAll",
      "outputs": [
        {
          "internalType": "bool",
          "name": "",
          "type": "bool"
        }
      ],
      "stateMutability": "view",
      "type": "function"
    },
    {
      "inputs": [
        {
          "internalType": "address",
          "name": "student",
          "type": "address"
        },
        {
          "internalType": "string",
          "name": "uri",
          "type": "string"
        }
      ],
      "name": "mint",
      "outputs": [
        {
          "internalType": "uint256",
          "name": "",
          "type": "uint256"
        }
      ],
      "stateMutability": "nonpayable",
      "type": "function"
    },
    {
      "inputs": [],
      "name": "name",
      "outputs": [
        {
          "internalType": "string",
          "name": "",
          "type": "string"
        }
      ],
      "stateMutability": "view",
      "type": "function"
    },
    {
      "inputs": [
        {
          "internalType": "uint256",
          "name": "tokenId",
          "type": "uint256"
        }
      ],
      "name": "ownerOf",
      "outputs": [
        {
          "internalType": "address",
          "name": "",
          "type": "address"
        }
      ],
      "stateMutability": "view",
      "type": "function"
    },
    {
      "inputs": [],
      "name": "registry",
      "outputs": [
        {
          "internalType": "address",
          "name": "",
          "type": "address"
        }
      ],
      "stateMutability": "view",
      "type": "function"
    },
    {
      "inputs": [
        {
          "internalType": "address",
          "name": "from",
          "type": "address"
        },
        {
          "internalType": "address",
          "name": "to",
          "type": "address"
        },
        {
          "internalType": "uint256",
          "name": "tokenId",
          "type": "uint256"
        }
      ],
      "name": "safeTransferFrom",
      "outputs": [],
      "stateMutability": "nonpayable",
      "type": "function"
    },
    {
      "inputs": [
        {
          "internalType": "address",
          "name": "from",
          "type": "address"
        },
        {
          "internalType": "address",
          "name": "to",
          "type": "address"
        },
        {
          "internalType": "uint256",
          "name": "tokenId",
          "type": "uint256"
        },
        {
          "internalType": "bytes",
          "name": "data",
          "type": "bytes"
        }
      ],
      "name": "safeTransferFrom",
      "outputs": [],
      "stateMutability": "nonpayable",
      "type": "function"
    },
    {
      "inputs": [
        {
          "internalType": "address",
          "name": "operator",
          "type": "address"
        },
        {
          "internalType": "bool",
          "name": "approved",
          "type": "bool"
        }
      ],
      "name": "setApprovalForAll",
      "outputs": [],
      "stateMutability": "nonpayable",
      "type": "function"
    },
    {
      "inputs": [
        {
          "internalType": "address",
          "name": "_registry",
          "type": "address"
        }
      ],
      "name": "setRegistry",
      "outputs": [],
      "stateMutability": "nonpayable",
      "type": "function"
    },
    {
      "inputs": [
        {
          "internalType": "bytes4",
          "name": "interfaceId",
          "type": "bytes4"
        }
      ],
      "name": "supportsInterface",
      "outputs": [
        {
          "internalType": "bool",
          "name": "",
          "type": "bool"
        }
      ],
      "stateMutability": "view",
      "type": "function"
    },
    {
      "inputs": [],
      "name": "symbol",
      "outputs": [
        {
          "internalType": "string",
          "name": "",
          "type": "string"
        }
      ],
      "stateMutability": "view",
      "type": "function"
    },
    {
      "inputs": [
        {
          "internalType": "uint256",
          "name": "tokenId",
          "type": "uint256"
        }
      ],
      "name": "tokenURI",
      "outputs": [
        {
          "internalType": "string",
          "name": "",
          "type": "string"
        }
      ],
      "stateMutability": "view",
      "type": "function"
    },
    {
      "inputs": [
        {
          "internalType": "address",
          "name": "from",
          "type": "address"
        },
        {
          "internalType": "address",
          "name": "to",
          "type": "address"
        },
        {
          "internalType": "uint256",
          "name": "tokenId",
          "type": "uint256"
        }
      ],
      "name": "transferFrom",
      "outputs": [],
      "stateMutability": "nonpayable",
      "type": "function"
    }
  ],
  "bytecode": "0x608060405234801562000010575f80fd5b506040518060400160405280601481526020017f43657274436861696e2043726564656e7469616c0000000000000000000000008152506040518060400160405280600481526020016310d1549560e21b815250815f90816200007491906200012a565b5060016200008382826200012a565b505050620001f6565b634e487b7160e01b5f52604160045260245ffd5b600181811c90821680620000b557607f821691505b602082108103620000d457634e487b7160e01b5f52602260045260245ffd5b50919050565b601f8211156200012557805f5260205f20601f840160051c81016020851015620001015750805b601f840160051c820191505b8181101562000122575f81556001016200010d565b50505b505050565b81516001600160401b038111156200014657620001466200008c565b6200015e81620001578454620000a0565b84620000da565b602080601f83116001811462000194575f84156200017c5750858301515b5f19600386901b1c1916600185901b178555620001ee565b5f85815260208120601f198616915b82811015620001c457888601518255948401946001909101908401620001a3565b5085821015620001e257878501515f19600388901b60f8161c191681555b505060018460011b0185555b505050505050565b6111ba80620002045f395ff3fe608060405234801561000f575f80fd5b50600436106100fb575f3560e01c80637b10399911610093578063b88d4fde11610063578063b88d4fde14610217578063c87b56dd1461022a578063d0def5211461023d578063e985e9c514610250575f80fd5b80637b103999146101d657806395d89b41146101e9578063a22cb465146101f1578063a91ee0dc14610204575f80fd5b806323b872dd116100ce57806323b872dd1461017c57806342842e0e1461018f5780636352211e146101a257806370a08231146101b5575f80fd5b806301ffc9a7146100ff57806306fdde0314610127578063081812fc1461013c578063095ea7b314610167575b5f80fd5b61011261010d366004610cac565b610263565b60405190151581526020015b60405180910390f35b61012f6102b4565b60405161011e9190610d11565b61014f61014a366004610d23565b610343565b6040516001600160a01b03909116815260200161011e565b61017a610175366004610d55565b61036a565b005b61017a61018a366004610d7d565b610379565b61017a61019d366004610d7d565b610407565b61014f6101b0366004610d23565b610426565b6101c86101c3366004610db6565b610430565b60405190815260200161011e565b60075461014f906001600160a01b031681565b61012f610475565b61017a6101ff366004610dcf565b610484565b61017a610212366004610db6565b61048f565b61017a610225366004610e1c565b610501565b61012f610238366004610d23565b610519565b6101c861024b366004610ef1565b6105b8565b61011261025e366004610f6d565b61069b565b5f6001600160e01b031982166380ac58cd60e01b148061029357506001600160e01b03198216635b5e139f60e01b145b806102ae57506301ffc9a760e01b6001600160e01b03198316145b92915050565b60605f80546102c290610f9e565b80601f01602080910402602001604051908101604052809291908181526020018280546102ee90610f9e565b80156103395780601f1061031057610100808354040283529160200191610339565b820191905f5260205f20905b81548152906001019060200180831161031c57829003601f168201915b5050505050905090565b5f61034d826106c8565b505f828152600460205260409020546001600160a01b03166102ae565b610375828233610700565b5050565b6001600160a01b0382166103a757604051633250574960e11b81525f60048201526024015b60405180910390fd5b5f6103b383833361070d565b9050836001600160a01b0316816001600160a01b031614610401576040516364283d7b60e01b81526001600160a01b038086166004830152602482018490528216604482015260640161039e565b50505050565b61042183838360405180602001604052805f815250610501565b505050565b5f6102ae826106c8565b5f6001600160a01b03821661045a576040516322718ad960e21b81525f600482015260240161039e565b506001600160a01b03165f9081526003602052604090205490565b6060600180546102c290610f9e565b610375338383610786565b6007546001600160a01b0316156104df5760405162461bcd60e51b8152602060048201526014602482015273149959da5cdd1c9e48185b1c9958591e481cd95d60621b604482015260640161039e565b600780546001600160a01b0319166001600160a01b0392909216919091179055565b61050c848484610379565b610401338585858561084d565b5f81815260086020526040902080546060919061053590610f9e565b80601f016020809104026020016040519081016040528092919081815260200182805461056190610f9e565b80156105ac5780601f10610583576101008083540402835291602001916105ac565b820191905f5260205f20905b81548152906001019060200180831161058f57829003601f168201915b50505050509050919050565b6007545f906001600160a01b0316331461060d5760405162461bcd60e51b815260206004820152601660248201527513db9b1e481c9959da5cdd1c9e4818d85b881b5a5b9d60521b604482015260640161039e565b60068054905f61061c83610fd6565b919050555061062d84600654610975565b6006545f90815260086020526040902061064883858361103e565b50836001600160a01b03167f4b9ad712e7eaa8cc24efaf239a9107a8e27385fb66e301d70c4f0d5747bde6536006548585604051610688939291906110f8565b60405180910390a2506006549392505050565b6001600160a01b039182165f90815260056020908152604080832093909416825291909152205460ff1690565b5f818152600260205260408120546001600160a01b0316806102ae57604051637e27328960e01b81526004810184905260240161039e565b61042183838360016109d6565b5f828152600260205260408120546001600160a01b031680156107725760405162461bcd60e51b815260206004820152601b60248201527f536f756c626f756e643a206e6f6e2d7472616e7366657261626c650000000000604482015260640161039e565b61077d858585610ada565b95945050505050565b6001600160a01b0383166107af5760405163a9fbf51f60e01b81525f600482015260240161039e565b6001600160a01b0382166107e157604051630b61174360e31b81526001600160a01b038316600482015260240161039e565b6001600160a01b038381165f81815260056020908152604080832094871680845294825291829020805460ff191686151590811790915591519182527f17307eab39ab6107e8899845ad3d59bd9653f200f220920489ca2b5937696c31910160405180910390a3505050565b6001600160a01b0383163b1561096e57604051630a85bd0160e11b81526001600160a01b0384169063150b7a029061088f90889088908790879060040161112d565b6020604051808303815f875af19250505080156108c9575060408051601f3d908101601f191682019092526108c691810190611169565b60015b610930573d8080156108f6576040519150601f19603f3d011682016040523d82523d5f602084013e6108fb565b606091505b5080515f0361092857604051633250574960e11b81526001600160a01b038516600482015260240161039e565b805160208201fd5b6001600160e01b03198116630a85bd0160e11b1461096c57604051633250574960e11b81526001600160a01b038516600482015260240161039e565b505b5050505050565b6001600160a01b03821661099e57604051633250574960e11b81525f600482015260240161039e565b5f6109aa83835f61070d565b90506001600160a01b03811615610421576040516339e3563760e11b81525f600482015260240161039e565b80806109ea57506001600160a01b03821615155b15610aab575f6109f9846106c8565b90506001600160a01b03831615801590610a255750826001600160a01b0316816001600160a01b031614155b8015610a385750610a36818461069b565b155b15610a615760405163a9fbf51f60e01b81526001600160a01b038416600482015260240161039e565b8115610aa95783856001600160a01b0316826001600160a01b03167f8c5be1e5ebec7d5bd14f71427d1e84f3dd0314c0f7b2291e5b200ac8c7c3b92560405160405180910390a45b505b50505f90815260046020526040902080546001600160a01b0319166001600160a01b0392909216919091179055565b5f828152600260205260408120546001600160a01b0390811690831615610b0657610b06818486610bcc565b6001600160a01b03811615610b4057610b215f855f806109d6565b6001600160a01b0381165f90815260036020526040902080545f190190555b6001600160a01b03851615610b6e576001600160a01b0385165f908152600360205260409020805460010190555b5f8481526002602052604080822080546001600160a01b0319166001600160a01b0389811691821790925591518793918516917fddf252ad1be2c89b69c2b068fc378daa952ba7f163c4a11628f55a4df523b3ef91a4949350505050565b610bd7838383610c30565b610421576001600160a01b038316610c0557604051637e27328960e01b81526004810182905260240161039e565b60405163177e802f60e01b81526001600160a01b03831660048201526024810182905260440161039e565b5f6001600160a01b03831615801590610c8c5750826001600160a01b0316846001600160a01b03161480610c695750610c69848461069b565b80610c8c57505f828152600460205260409020546001600160a01b038481169116145b949350505050565b6001600160e01b031981168114610ca9575f80fd5b50565b5f60208284031215610cbc575f80fd5b8135610cc781610c94565b9392505050565b5f81518084525f5b81811015610cf257602081850181015186830182015201610cd6565b505f602082860101526020601f19601f83011685010191505092915050565b602081525f610cc76020830184610cce565b5f60208284031215610d33575f80fd5b5035919050565b80356001600160a01b0381168114610d50575f80fd5b919050565b5f8060408385031215610d66575f80fd5b610d6f83610d3a565b946020939093013593505050565b5f805f60608486031215610d8f575f80fd5b610d9884610d3a565b9250610da660208501610d3a565b9150604084013590509250925092565b5f60208284031215610dc6575f80fd5b610cc782610d3a565b5f8060408385031215610de0575f80fd5b610de983610d3a565b915060208301358015158114610dfd575f80fd5b809150509250929050565b634e487b7160e01b5f52604160045260245ffd5b5f805f8060808587031215610e2f575f80fd5b610e3885610d3a565b9350610e4660208601610d3a565b925060408501359150606085013567ffffffffffffffff80821115610e69575f80fd5b818701915087601f830112610e7c575f80fd5b813581811115610e8e57610e8e610e08565b604051601f8201601f19908116603f01168101908382118183101715610eb657610eb6610e08565b816040528281528a6020848701011115610ece575f80fd5b826020860160208301375f60208483010152809550505050505092959194509250565b5f805f60408486031215610f03575f80fd5b610f0c84610d3a565b9250602084013567ffffffffffffffff80821115610f28575f80fd5b818601915086601f830112610f3b575f80fd5b813581811115610f49575f80fd5b876020828501011115610f5a575f80fd5b6020830194508093505050509250925092565b5f8060408385031215610f7e575f80fd5b610f8783610d3a565b9150610f9560208401610d3a565b90509250929050565b600181811c90821680610fb257607f821691505b602082108103610fd057634e487b7160e01b5f52602260045260245ffd5b50919050565b5f60018201610ff357634e487b7160e01b5f52601160045260245ffd5b5060010190565b601f82111561042157805f5260205f20601f840160051c8101602085101561101f5750805b601f840160051c820191505b8181101561096e575f815560010161102b565b67ffffffffffffffff83111561105657611056610e08565b61106a836110648354610f9e565b83610ffa565b5f601f84116001811461109b575f85156110845750838201355b5f19600387901b1c1916600186901b17835561096e565b5f83815260208120601f198716915b828110156110ca57868501358255602094850194600190920191016110aa565b50868210156110e6575f1960f88860031b161c19848701351681555b505060018560011b0183555050505050565b83815260406020820152816040820152818360608301375f818301606090810191909152601f909201601f1916010192915050565b6001600160a01b03858116825284166020820152604081018390526080606082018190525f9061115f90830184610cce565b9695505050505050565b5f60208284031215611179575f80fd5b8151610cc781610c9456fea26469706673582212209d514ca6118e8acd4f87a59d21a7d51437f050a7f15127d6df53be86db9101be64736f6c63430008180033",
  "linkReferences": {},
  "deployedLinkReferences": {}
}