{"contracts/CertificateChain.sol":{"CertificateChain":{"abi":[{"inputs":[],"stateMutability":"nonpayable","type":"constructor"},{"anonymous":false,"inputs":[{"indexed":true,"internalType":"bytes32","name":"certId","type":"bytes32"},{"indexed":false,"internalType":"bytes32","name":"chainedHash","type":"bytes32"},{"indexed":true,"internalType":"address","name":"issuer","type":"address"},{"indexed":false,"internalType":"uint256","name":"timestamp","type":"uint256"}],"name":"CertificateIssued","type":"event"},{"anonymous":false,"inputs":[{"indexed":true,"internalType":"bytes32","name":"certId","type":"bytes32"}],"name":"CertificateRevoked","type":"event"},{"anonymous":false,"inputs":[{"indexed":true,"internalType":"address","name":"issuer","type":"address"}],"name":"IssuerAuthorized","type":"event"},{"anonymous":false,"inputs":[{"indexed":true,"internalType":"address","name":"issuer","type":"address"}],"name":"IssuerDeauthorized","type":"event"},{"inputs":[],"name":"admin","outputs":[{"internalType":"address","name":"","type":"address"}],"stateMutability":"view","type":"function"},{"inputs":[{"internalType":"address","name":"_issuer","type":"address"}],"name":"authorizeIssuer","outputs":[],"stateMutability":"nonpayable","type":"function"},{"inputs":[{"internalType":"address","name":"","type":"address"}],"name":"authorizedIssuers","outputs":[{"internalType":"bool","name":"","type":"bool"}],"stateMutability":"view","type":"function"},{"inputs":[{"internalType":"bytes32","name":"","type":"bytes32"}],"name":"certificates","outputs":[{"internalType":"bytes32","name":"chainedHash","type":"bytes32"},{"internalType":"address","name":"issuer","type":"address"},{"internalType":"uint256","name":"timestamp","type":"uint256"},{"internalType":"bool","name":"isRevoked","type":"bool"}],"stateMutability":"view","type":"function"},{"inputs":[{"internalType":"address","name":"_issuer","type":"address"}],"name":"deauthorizeIssuer","outputs":[],"stateMutability":"nonpayable","type":"function"},{"inputs":[{"internalType":"bytes32","name":"certId","type":"bytes32"},{"internalType":"bytes32","name":"payloadHash","type":"bytes32"}],"name":"issueCertificate","outputs":[],"stateMutability":"nonpayable","type":"function"},{"inputs":[{"internalType":"address","name":"","type":"address"}],"name":"lastCertHash","outputs":[{"internalType":"bytes32","name":"","type":"bytes32"}],"stateMutability":"view","type":"function"},{"inputs":[{"internalType":"bytes32","name":"certId","type":"bytes32"}],"name":"revokeCertificate","outputs":[],"stateMutability":"nonpayable","type":"function"},{"inputs":[{"internalType":"bytes32","name":"certId","type":"bytes32"}],"name":"verifyCertificate","outputs":[{"internalType":"bool","name":"exists","type":"bool"},{"internalType":"bytes32","name":"chainedHash","type":"bytes32"},{"internalType":"address","name":"issuer","type":"address"},{"internalType":"uint256","name":"timestamp","type":"uint256"},{"internalType":"bool","name":"isRevoked","type":"bool"}],"stateMutability":"view","type":"function"}],"evm":{"bytecode":{"linkReferences":{},"object":"608060405234801561000f575f80fd5b505f80546001600160a01b0319163390811782558152600360205260409020805460ff19166001179055610788806100465f395ff3fe608060405234801561000f575f80fd5b5060043610610090575f3560e01c8063850c176811610063578063850c17681461014057806396c735341461018d578063c6cbc52a146101ba578063f731fa0f146101cd578063f851a440146101ff575f80fd5b80633a71daf414610094578063436693d5146100a957806357bcf883146100bc578063742f0688146100cf575b5f80fd5b6100a76100a23660046106ee565b610229565b005b6100a76100b73660046106ee565b6102bb565b6100a76100ca36600461071b565b61034b565b6101116100dd36600461073b565b600260208190525f9182526040909120805460018201549282015460039092015490926001600160a01b0316919060ff1684565b604080519485526001600160a01b03909316602085015291830152151560608201526080015b60405180910390f35b61015361014e36600461073b565b6104f1565b60408051951515865260208601949094526001600160a01b039092169284019290925260608301919091521515608082015260a001610137565b6101ac61019b3660046106ee565b60016020525f908152604090205481565b604051908152602001610137565b6100a76101c836600461073b565b61058a565b6101ef6101db3660046106ee565b60036020525f908152604090205460ff1681565b6040519015158152602001610137565b5f54610211906001600160a01b031681565b6040516001600160a01b039091168152602001610137565b5f546001600160a01b031633146102735760405162461bcd60e51b81526020600482015260096024820152682737ba1030b236b4b760b91b60448201526064015b60405180910390fd5b6001600160a01b0381165f81815260036020526040808220805460ff19169055517f8f3e6dced744d75443e2f2eb94962b368491dc80ec07cd3a3f7896069b6c452c9190a250565b5f546001600160a01b031633146103005760405162461bcd60e51b81526020600482015260096024820152682737ba1030b236b4b760b91b604482015260640161026a565b6001600160a01b0381165f81815260036020526040808220805460ff19166001179055517f8b4006ca14f23d4e7aa8d120d1ab7c3761d650eefac1a5d6732dbea94b54ea249190a250565b335f9081526003602052604090205460ff1661039a5760405162461bcd60e51b815260206004820152600e60248201526d139bdd08185d5d1a1bdc9a5e995960921b604482015260640161026a565b5f8281526002602081905260409091200154156103f95760405162461bcd60e51b815260206004820152601d60248201527f436572746966696361746520494420616c726561647920657869737473000000604482015260640161026a565b335f9081526001602090815260408083205481519283018590529082015260600160408051808303601f19018152828252805160209182012060808401835280845233828501818152428686018181525f606089018181528c825260028089528983209a518b5594516001808c0180546001600160a01b0319166001600160a01b03909316929092179091559251948a019490945592516003909801805460ff191698151598909817909755828252958452849020829055835182815292830194909452935085917fed3fb0c3a9605cec9da0b1495110aef1662946be8847255ab558d1e67b0bf992910160405180910390a3505050565b5f81815260026020818152604080842081516080810183528154815260018201546001600160a01b0316938101939093529283015490820181905260039092015460ff1615156060820152829182918291829190820361056057505f9450849350839250829150819050610581565b6001815f015182602001518360400151846060015195509550955095509550505b91939590929450565b5f8181526002602081905260408220908101549091036105ec5760405162461bcd60e51b815260206004820152601a60248201527f436572746966696361746520646f6573206e6f74206578697374000000000000604482015260640161026a565b60018101546001600160a01b031633148061061057505f546001600160a01b031633145b61065c5760405162461bcd60e51b815260206004820152601f60248201527f4f6e6c7920697373756572206f722061646d696e2063616e207265766f6b6500604482015260640161026a565b600381015460ff16156106b15760405162461bcd60e51b815260206004820152601b60248201527f436572746966696361746520616c7265616479207265766f6b65640000000000604482015260640161026a565b60038101805460ff1916600117905560405182907f44d80a438cb4fa3b5aedbe551ce3d9382e37f446917b783e1dee70a03b4180e3905f90a25050565b5f602082840312156106fe575f80fd5b81356001600160a01b0381168114610714575f80fd5b9392505050565b5f806040838503121561072c575f80fd5b50508035926020909101359150565b5f6020828403121561074b575f80fd5b503591905056fea26469706673582212207b940e88bca16b0f68b6ff088b35906399f7bb81b33f4f50ee20d3c8781ae25e64736f6c63430008180033","opcodes":"PUSH1 0x80 PUSH1 0x40 MSTORE CALLVALUE DUP1 ISZERO PUSH2 0xF JUMPI PUSH0 DUP1 REVERT JUMPDEST POP PUSH0 DUP1 SLOAD PUSH1 0x1 PUSH1 0x1 PUSH1 0xA0 SHL SUB NOT AND CALLER SWAP1 DUP2 OR DUP3 SSTORE DUP2 MSTORE PUSH1 0x3 PUSH1 0x20 MSTORE PUSH1 0x40 SWAP1 KECCAK256 DUP1 SLOAD PUSH1 0xFF NOT AND PUSH1 0x1 OR SWAP1 SSTORE PUSH2 0x788 DUP1 PUSH2 0x46 PUSH0 CODECOPY PUSH0 RETURN INVALID PUSH1 0x80 PUSH1 0x40 MSTORE CALLVALUE DUP1 ISZERO PUSH2 0xF JUMPI PUSH0 DUP1 REVERT JUMPDEST POP PUSH1 0x4 CALLDATASIZE LT PUSH2 0x90 JUMPI PUSH0 CALLDATALOAD PUSH1 0xE0 SHR DUP1 PUSH4 0x850C1768 GT PUSH2 0x63 JUMPI DUP1 PUSH4 0x850C1768 EQ PUSH2 0x140 JUMPI DUP1 PUSH4 0x96C73534 EQ PUSH2 0x18D JUMPI DUP1 PUSH4 0xC6CBC52A EQ PUSH2 0x1BA JUMPI DUP1 PUSH4 0xF731FA0F EQ PUSH2 0x1CD JUMPI DUP1 PUSH4 0xF851A440 EQ PUSH2 0x1FF JUMPI PUSH0 DUP1 REVERT JUMPDEST DUP1 PUSH4 0x3A71DAF4 EQ PUSH2 0x94 JUMPI DUP1 PUSH4 0x436693D5 EQ PUSH2 0xA9 JUMPI DUP1 PUSH4 0x57BCF883 EQ PUSH2 0xBC JUMPI DUP1 PUSH4 0x742F0688 EQ PUSH2 0xCF JUMPI JUMPDEST PUSH0 DUP1 REVERT JUMPDEST PUSH2 0xA7 PUSH2 0xA2 CALLDATASIZE PUSH1 0x4 PUSH2 0x6EE JUMP JUMPDEST PUSH2 0x229 JUMP JUMPDEST STOP JUMPDEST PUSH2 0xA7 PUSH2 0xB7 CALLDATASIZE PUSH1 0x4 PUSH2 0x6EE JUMP JUMPDEST PUSH2 0x2BB JUMP JUMPDEST PUSH2 0xA7 PUSH2 0xCA CALLDATASIZE PUSH1 0x4 PUSH2 0x71B JUMP JUMPDEST PUSH2 0x34B JUMP JUMPDEST PUSH2 0x111 PUSH2 0xDD CALLDATASIZE PUSH1 0x4 PUSH2 0x73B JUMP JUMPDEST PUSH1 0x2 PUSH1 0x20 DUP2 SWAP1 MSTORE PUSH0 SWAP2 DUP3 MSTORE PUSH1 0x40 SWAP1 SWAP2 KECCAK256 DUP1 SLOAD PUSH1 0x1 DUP3 ADD SLOAD SWAP3 DUP3 ADD SLOAD PUSH1 0x3 SWAP1 SWAP3 ADD SLOAD SWAP1 SWAP3 PUSH1 0x1 PUSH1 0x1 PUSH1 0xA0 SHL SUB AND SWAP2 SWAP1 PUSH1 0xFF AND DUP5 JUMP JUMPDEST PUSH1 0x40 DUP1 MLOAD SWAP5 DUP6 MSTORE PUSH1 0x1 PUSH1 0x1 PUSH1 0xA0 SHL SUB SWAP1 SWAP4 AND PUSH1 0x20 DUP6 ADD MSTORE SWAP2 DUP4 ADD MSTORE ISZERO ISZERO PUSH1 0x60 DUP3 ADD MSTORE PUSH1 0x80 ADD JUMPDEST PUSH1 0x40 MLOAD DUP1 SWAP2 SUB SWAP1 RETURN JUMPDEST PUSH2 0x153 PUSH2 0x14E CALLDATASIZE PUSH1 0x4 PUSH2 0x73B JUMP JUMPDEST PUSH2 0x4F1 JUMP JUMPDEST PUSH1 0x40 DUP1 MLOAD SWAP6 ISZERO ISZERO DUP7 MSTORE PUSH1 0x20 DUP7 ADD SWAP5 SWAP1 SWAP5 MSTORE PUSH1 0x1 PUSH1 0x1 PUSH1 0xA0 SHL SUB SWAP1 SWAP3 AND SWAP3 DUP5 ADD SWAP3 SWAP1 SWAP3 MSTORE PUSH1 0x60 DUP4 ADD SWAP2 SWAP1 SWAP2 MSTORE ISZERO ISZERO PUSH1 0x80 DUP3 ADD MSTORE PUSH1 0xA0 ADD PUSH2 0x137 JUMP JUMPDEST PUSH2 0x1AC PUSH2 0x19B CALLDATASIZE PUSH1 0x4 PUSH2 0x6EE JUMP JUMPDEST PUSH1 0x1 PUSH1 0x20 MSTORE PUSH0 SWAP1 DUP2 MSTORE PUSH1 0x40 SWAP1 KECCAK256 SLOAD DUP2 JUMP JUMPDEST PUSH1 0x40 MLOAD SWAP1 DUP2 MSTORE PUSH1 0x20 ADD PUSH2 0x137 JUMP JUMPDEST PUSH2 0xA7 PUSH2 0x1C8 CALLDATASIZE PUSH1 0x4 PUSH2 0x73B JUMP JUMPDEST PUSH2 0x58A JUMP JUMPDEST PUSH2 0x1EF PUSH2 0x1DB CALLDATASIZE PUSH1 0x4 PUSH2 0x6EE JUMP JUMPDEST PUSH1 0x3 PUSH1 0x20 MSTORE PUSH0 SWAP1 DUP2 MSTORE PUSH1 0x40 SWAP1 KECCAK256 SLOAD PUSH1 0xFF AND DUP2 JUMP JUMPDEST PUSH1 0x40 MLOAD SWAP1 ISZERO ISZERO DUP2 MSTORE PUSH1 0x20 ADD PUSH2 0x137 JUMP JUMPDEST PUSH0 SLOAD PUSH2 0x211 SWAP1 PUSH1 0x1 PUSH1 0x1 PUSH1 0xA0 SHL SUB AND DUP2 JUMP JUMPDEST PUSH1 0x40 MLOAD PUSH1 0x1 PUSH1 0x1 PUSH1 0xA0 SHL SUB SWAP1 SWAP2 AND DUP2 MSTORE PUSH1 0x20 ADD PUSH2 0x137 JUMP JUMPDEST PUSH0 SLOAD PUSH1 0x1 PUSH1 0x1 PUSH1 0xA0 SHL SUB AND CALLER EQ PUSH2 0x273 JUMPI PUSH1 0x40 MLOAD PUSH3 0x461BCD PUSH1 0xE5 SHL DUP2 MSTORE PUSH1 0x20 PUSH1 0x4 DUP3 ADD MSTORE PUSH1 0x9 PUSH1 0x24 DUP3 ADD MSTORE PUSH9 0x2737BA1030B236B4B7 PUSH1 0xB9 SHL PUSH1 0x44 DUP3 ADD MSTORE PUSH1 0x64 ADD JUMPDEST PUSH1 0x40 MLOAD DUP1 SWAP2 SUB SWAP1 REVERT JUMPDEST PUSH1 0x1 PUSH1 0x1 PUSH1 0xA0 SHL SUB DUP2 AND PUSH0 DUP2 DUP2 MSTORE PUSH1 0x3 PUSH1 0x20 MSTORE PUSH1 0x40 DUP1 DUP3 KECCAK256 DUP1 SLOAD PUSH1 0xFF NOT AND SWAP1 SSTORE MLOAD PUSH32 0x8F3E6DCED744D75443E2F2EB94962B368491DC80EC07CD3A3F7896069B6C452C SWAP2 SWAP1 LOG2 POP JUMP JUMPDEST PUSH0 SLOAD PUSH1 0x1 PUSH1 0x1 PUSH1 0xA0 SHL SUB AND CALLER EQ PUSH2 0x300 JUMPI PUSH1 0x40 MLOAD PUSH3 0x461BCD PUSH1 0xE5 SHL DUP2 MSTORE PUSH1 0x20 PUSH1 0x4 DUP3 ADD MSTORE PUSH1 0x9 PUSH1 0x24 DUP3 ADD MSTORE PUSH9 0x2737BA1030B236B4B7 PUSH1 0xB9 SHL PUSH1 0x44 DUP3 ADD MSTORE PUSH1 0x64 ADD PUSH2 0x26A JUMP JUMPDEST PUSH1 0x1 PUSH1 0x1 PUSH1 0xA0 SHL SUB DUP2 AND PUSH0 DUP2 DUP2 MSTORE PUSH1 0x3 PUSH1 0x20 MSTORE PUSH1 0x40 DUP1 DUP3 KECCAK256 DUP1 SLOAD PUSH1 0xFF NOT AND PUSH1 0x1 OR SWAP1 SSTORE MLOAD PUSH32 0x8B4006CA14F23D4E7AA8D120D1AB7C3761D650EEFAC1A5D6732DBEA94B54EA24 SWAP2 SWAP1 LOG2 POP JUMP JUMPDEST CALLER PUSH0 SWAP1 DUP2 MSTORE PUSH1 0x3 PUSH1 0x20 MSTORE PUSH1 0x40 SWAP1 KECCAK256 SLOAD PUSH1 0xFF AND PUSH2 0x39A JUMPI PUSH1 0x40 MLOAD PUSH3 0x461BCD PUSH1 0xE5 SHL DUP2 MSTORE PUSH1 0x20 PUSH1 0x4 DUP3 ADD MSTORE PUSH1 0xE PUSH1 0x24 DUP3 ADD MSTORE PUSH14 0x139BDD08185D5D1A1BDC9A5E9959 PUSH1 0x92 SHL PUSH1 0x44 DUP3 ADD MSTORE PUSH1 0x64 ADD PUSH2 0x26A JUMP JUMPDEST PUSH0 DUP3 DUP2 MSTORE PUSH1 0x2 PUSH1 0x20 DUP2 SWAP1 MSTORE PUSH1 0x40 SWAP1 SWAP2 KECCAK256 ADD SLOAD ISZERO PUSH2 0x3F9 JUMPI PUSH1 0x40 MLOAD PUSH3 0x461BCD PUSH1 0xE5 SHL DUP2 MSTORE PUSH1 0x20 PUSH1 0x4 DUP3 ADD MSTORE PUSH1 0x1D PUSH1 0x24 DUP3 ADD MSTORE PUSH32 0x436572746966696361746520494420616C726561647920657869737473000000 PUSH1 0x44 DUP3 ADD MSTORE PUSH1 0x64 ADD PUSH2 0x26A JUMP JUMPDEST CALLER PUSH0 SWAP1 DUP2 MSTORE PUSH1 0x1 PUSH1 0x20 SWAP1 DUP2 MSTORE PUSH1 0x40 DUP1 DUP4 KECCAK256 SLOAD DUP2 MLOAD SWAP3 DUP4 ADD DUP6 SWAP1 MSTORE SWAP1 DUP3 ADD MSTORE PUSH1 0x60 ADD PUSH1 0x40 DUP1 MLOAD DUP1 DUP4 SUB PUSH1 0x1F NOT ADD DUP2 MSTORE DUP3 DUP3 MSTORE DUP1 MLOAD PUSH1 0x20 SWAP2 DUP3 ADD KECCAK256 PUSH1 0x80 DUP5 ADD DUP4 MSTORE DUP1 DUP5 MSTORE CALLER DUP3 DUP6 ADD DUP2 DUP2 MSTORE TIMESTAMP DUP7 DUP7 ADD DUP2 DUP2 MSTORE PUSH0 PUSH1 0x60 DUP10 ADD DUP2 DUP2 MSTORE DUP13 DUP3 MSTORE PUSH1 0x2 DUP1 DUP10 MSTORE DUP10 DUP4 KECCAK256 SWAP11 MLOAD DUP12 SSTORE SWAP5 MLOAD PUSH1 0x1 DUP1 DUP13 ADD DUP1 SLOAD PUSH1 0x1 PUSH1 0x1 PUSH1 0xA0 SHL SUB NOT AND PUSH1 0x1 PUSH1 0x1 PUSH1 0xA0 SHL SUB SWAP1 SWAP4 AND SWAP3 SWAP1 SWAP3 OR SWAP1 SWAP2 SSTORE SWAP3 MLOAD SWAP5 DUP11 ADD SWAP5 SWAP1 SWAP5 SSTORE SWAP3 MLOAD PUSH1 0x3 SWAP1 SWAP9 ADD DUP1 SLOAD PUSH1 0xFF NOT AND SWAP9 ISZERO ISZERO SWAP9 SWAP1 SWAP9 OR SWAP1 SWAP8 SSTORE DUP3 DUP3 MSTORE SWAP6 DUP5 MSTORE DUP5 SWAP1 KECCAK256 DUP3 SWAP1 SSTORE DUP4 MLOAD DUP3 DUP2 MSTORE SWAP3 DUP4 ADD SWAP5 SWAP1 SWAP5 MSTORE SWAP4 POP DUP6 SWAP2 PUSH32 0xED3FB0C3A9605CEC9DA0B1495110AEF1662946BE8847255AB558D1E67B0BF992 SWAP2 ADD PUSH1 0x40 MLOAD DUP1 SWAP2 SUB SWAP1 LOG3 POP POP POP JUMP JUMPDEST PUSH0 DUP2 DUP2 MSTORE PUSH1 0x2 PUSH1 0x20 DUP2 DUP2 MSTORE PUSH1 0x40 DUP1 DUP5 KECCAK256 DUP2 MLOAD PUSH1 0x80 DUP2 ADD DUP4 MSTORE DUP2 SLOAD DUP2 MSTORE PUSH1 0x1 DUP3 ADD SLOAD PUSH1 0x1 PUSH1 0x1 PUSH1 0xA0 SHL SUB AND SWAP4 DUP2 ADD SWAP4 SWAP1 SWAP4 MSTORE SWAP3 DUP4 ADD SLOAD SWAP1 DUP3 ADD DUP2 SWAP1 MSTORE PUSH1 0x3 SWAP1 SWAP3 ADD SLOAD PUSH1 0xFF AND ISZERO ISZERO PUSH1 0x60 DUP3 ADD MSTORE DUP3 SWAP2 DUP3 SWAP2 DUP3 SWAP2 DUP3 SWAP2 SWAP1 DUP3 SUB PUSH2 0x560 JUMPI POP PUSH0 SWAP5 POP DUP5 SWAP4 POP DUP4 SWAP3 POP DUP3 SWAP2 POP DUP2 SWAP1 POP PUSH2 0x581 JUMP JUMPDEST PUSH1 0x1 DUP2 PUSH0 ADD MLOAD DUP3 PUSH1 0x20 ADD MLOAD DUP4 PUSH1 0x40 ADD MLOAD DUP5 PUSH1 0x60 ADD MLOAD SWAP6 POP SWAP6 POP SWAP6 POP SWAP6 POP SWAP6 POP POP JUMPDEST SWAP2 SWAP4 SWAP6 SWAP1 SWAP3 SWAP5 POP JUMP JUMPDEST PUSH0 DUP2 DUP2 MSTORE PUSH1 0x2 PUSH1 0x20 DUP2 SWAP1 MSTORE PUSH1 0x40 DUP3 KECCAK256 SWAP1 DUP2 ADD SLOAD SWAP1 SWAP2 SUB PUSH2 0x5EC JUMPI PUSH1 0x40 MLOAD PUSH3 0x461BCD PUSH1 0xE5 SHL DUP2 MSTORE PUSH1 0x20 PUSH1 0x4 DUP3 ADD MSTORE PUSH1 0x1A PUSH1 0x24 DUP3 ADD MSTORE PUSH32 0x436572746966696361746520646F6573206E6F74206578697374000000000000 PUSH1 0x44 DUP3 ADD MSTORE PUSH1 0x64 ADD PUSH2 0x26A JUMP JUMPDEST PUSH1 0x1 DUP2 ADD SLOAD PUSH1 0x1 PUSH1 0x1 PUSH1 0xA0 SHL SUB AND CALLER EQ DUP1 PUSH2 0x610 JUMPI POP PUSH0 SLOAD PUSH1 0x1 PUSH1 0x1 PUSH1 0xA0 SHL SUB AND CALLER EQ JUMPDEST PUSH2 0x65C JUMPI PUSH1 0x40 MLOAD PUSH3 0x461BCD PUSH1 0xE5 SHL DUP2 MSTORE PUSH1 0x20 PUSH1 0x4 DUP3 ADD MSTORE PUSH1 0x1F PUSH1 0x24 DUP3 ADD MSTORE PUSH32 0x4F6E6C7920697373756572206F722061646D696E2063616E207265766F6B6500 PUSH1 0x44 DUP3 ADD MSTORE PUSH1 0x64 ADD PUSH2 0x26A JUMP JUMPDEST PUSH1 0x3 DUP2 ADD SLOAD PUSH1 0xFF AND ISZERO PUSH2 0x6B1 JUMPI PUSH1 0x40 MLOAD PUSH3 0x461BCD PUSH1 0xE5 SHL DUP2 MSTORE PUSH1 0x20 PUSH1 0x4 DUP3 ADD MSTORE PUSH1 0x1B PUSH1 0x24 DUP3 ADD MSTORE PUSH32 0x436572746966696361746520616C7265616479207265766F6B65640000000000 PUSH1 0x44 DUP3 ADD MSTORE PUSH1 0x64 ADD PUSH2 0x26A JUMP JUMPDEST PUSH1 0x3 DUP2 ADD DUP1 SLOAD PUSH1 0xFF NOT AND PUSH1 0x1 OR SWAP1 SSTORE PUSH1 0x40 MLOAD DUP3 SWAP1 PUSH32 0x44D80A438CB4FA3B5AEDBE551CE3D9382E37F446917B783E1DEE70A03B4180E3 SWAP1 PUSH0 SWAP1 LOG2 POP POP JUMP JUMPDEST PUSH0 PUSH1 0x20 DUP3 DUP5 SUB SLT ISZERO PUSH2 0x6FE JUMPI PUSH0 DUP1 REVERT JUMPDEST DUP2 CALLDATALOAD PUSH1 0x1 PUSH1 0x1 PUSH1 0xA0 SHL SUB DUP2 AND DUP2 EQ PUSH2 0x714 JUMPI PUSH0 DUP1 REVERT JUMPDEST SWAP4 SWAP3 POP POP POP JUMP JUMPDEST PUSH0 DUP1 PUSH1 0x40 DUP4 DUP6 SUB SLT ISZERO PUSH2 0x72C JUMPI PUSH0 DUP1 REVERT JUMPDEST POP POP DUP1 CALLDATALOAD SWAP3 PUSH1 0x20 SWAP1 SWAP2 ADD CALLDATALOAD SWAP2 POP JUMP JUMPDEST PUSH0 PUSH1 0x20 DUP3 DUP5 SUB SLT ISZERO PUSH2 0x74B JUMPI PUSH0 DUP1 REVERT JUMPDEST POP CALLDATALOAD SWAP2 SWAP1 POP JUMP INVALID LOG2 PUSH5 0x6970667358 0x22 SLT KECCAK256 PUSH28 0x940E88BCA16B0F68B6FF088B35906399F7BB81B33F4F50EE20D3C878 BYTE 0xE2 MCOPY PUSH5 0x736F6C6343 STOP ADDMOD XOR STOP CALLER "},"methodIdentifiers":{"admin()":"f851a440","authorizeIssuer(address)":"436693d5","authorizedIssuers(address)":"f731fa0f","certificates(bytes32)":"742f0688","deauthorizeIssuer(address)":"3a71daf4","issueCertificate(bytes32,bytes32)":"57bcf883","lastCertHash(address)":"96c73534","revokeCertificate(bytes32)":"c6cbc52a","verifyCertificate(bytes32)":"850c1768"}}}}}