{"contracts/CertRegistry.sol":{"CertRegistry":{"abi":[{"inputs":[],"stateMutability":"nonpayable","type":"constructor"},{"anonymous":false,"inputs":[{"indexed":true,"internalType":"uint256","name":"id","type":"uint256"},{"indexed":true,"internalType":"bytes32","name":"certHash","type":"bytes32"},{"indexed":false,"internalType":"string","name":"ipfsCID","type":"string"},{"indexed":true,"internalType":"address","name":"issuer","type":"address"},{"indexed":false,"internalType":"uint256","name":"timestamp","type":"uint256"}],"name":"CertificateIssued","type":"event"},{"anonymous":false,"inputs":[{"indexed":true,"internalType":"uint256","name":"id","type":"uint256"}],"name":"CertificateRevoked","type":"event"},{"anonymous":false,"inputs":[{"indexed":true,"internalType":"address","name":"issuer","type":"address"}],"name":"IssuerAuthorized","type":"event"},{"anonymous":false,"inputs":[{"indexed":true,"internalType":"address","name":"issuer","type":"address"}],"name":"IssuerDeauthorized","type":"event"},{"inputs":[],"name":"admin","outputs":[{"internalType":"address","name":"","type":"address"}],"stateMutability":"view","type":"function"},{"inputs":[{"internalType":"address","name":"_issuer","type":"address"}],"name":"authorizeIssuer","outputs":[],"stateMutability":"nonpayable","type":"function"},{"inputs":[{"internalType":"address","name":"","type":"address"}],"name":"authorizedIssuers","outputs":[{"internalType":"bool","name":"","type":"bool"}],"stateMutability":"view","type":"function"},{"inputs":[],"name":"certCount","outputs":[{"internalType":"uint256","name":"","type":"uint256"}],"stateMutability":"view","type":"function"},{"inputs":[{"internalType":"uint256","name":"","type":"uint256"}],"name":"certificates","outputs":[{"internalType":"bytes32","name":"certHash","type":"bytes32"},{"internalType":"string","name":"ipfsCID","type":"string"},{"internalType":"address","name":"issuer","type":"address"},{"internalType":"uint256","name":"timestamp","type":"uint256"},{"internalType":"bool","name":"revoked","type":"bool"}],"stateMutability":"view","type":"function"},{"inputs":[{"internalType":"address","name":"_issuer","type":"address"}],"name":"deauthorizeIssuer","outputs":[],"stateMutability":"nonpayable","type":"function"},{"inputs":[{"internalType":"address","name":"_student","type":"address"}],"name":"getStudentCerts","outputs":[{"internalType":"uint256[]","name":"","type":"uint256[]"}],"stateMutability":"view","type":"function"},{"inputs":[{"internalType":"bytes32","name":"","type":"bytes32"}],"name":"hashToId","outputs":[{"internalType":"uint256","name":"","type":"uint256"}],"stateMutability":"view","type":"function"},{"inputs":[{"internalType":"bytes32","name":"_payloadHash","type":"bytes32"},{"internalType":"string","name":"_ipfsCID","type":"string"},{"internalType":"address","name":"_student","type":"address"},{"internalType":"string","name":"_metadataURI","type":"string"}],"name":"issueCertificate","outputs":[{"internalType":"uint256","name":"","type":"uint256"}],"stateMutability":"nonpayable","type":"function"},{"inputs":[{"internalType":"address","name":"","type":"address"}],"name":"lastCertHash","outputs":[{"internalType":"bytes32","name":"","type":"bytes32"}],"stateMutability":"view","type":"function"},{"inputs":[{"internalType":"uint256","name":"_id","type":"uint256"}],"name":"revokeCertificate","outputs":[],"stateMutability":"nonpayable","type":"function"},{"inputs":[],"name":"sbtContract","outputs":[{"internalType":"contract CertSBT","name":"","type":"address"}],"stateMutability":"view","type":"function"},{"inputs":[{"internalType":"address","name":"_sbtAddress","type":"address"}],"name":"setSBTContract","outputs":[],"stateMutability":"nonpayable","type":"function"},{"inputs":[{"internalType":"address","name":"","type":"address"},{"internalType":"uint256","name":"","type":"uint256"}],"name":"studentCerts","outputs":[{"internalType":"uint256","name":"","type":"uint256"}],"stateMutability":"view","type":"function"},{"inputs":[{"internalType":"bytes32","name":"_certHash","type":"bytes32"}],"name":"verifyCertificate","outputs":[{"internalType":"bool","name":"exists","type":"bool"},{"internalType":"uint256","name":"id","type":"uint256"},{"internalType":"string","name":"ipfsCID","type":"string"},{"internalType":"address","name":"issuer","type":"address"},{"internalType":"uint256","name":"timestamp","type":"uint256"},{"internalType":"bool","name":"revoked","type":"bool"}],"stateMutability":"view","type":"function"}],"evm":{"bytecode":{"linkReferences":{},"object":"608060405234801561000f575f80fd5b50600680546001600160a01b031916339081179091555f908152600360205260409020805460ff19166001179055610f6f8061004a5f395ff3fe608060405234801561000f575f80fd5b50600436106100f0575f3560e01c8063663b3e2211610093578063a041d2ca11610063578063a041d2ca1461022d578063d4e207a21461024d578063f731fa0f14610255578063f851a44014610287575f80fd5b8063663b3e22146101b2578063728f133b146101d6578063850c1768146101e957806396c735341461020e575f80fd5b806330095f89116100ce57806330095f89146101665780633a71daf4146101795780634156d5671461018c578063436693d51461019f575f80fd5b806306158360146100f457806306f5497e14610124578063095f077314610139575b5f80fd5b600754610107906001600160a01b031681565b6040516001600160a01b0390911681526020015b60405180910390f35b610137610132366004610ab6565b61029a565b005b610158610147366004610ab6565b60026020525f908152604090205481565b60405190815260200161011b565b610137610174366004610ae8565b61040c565b610137610187366004610ae8565b610458565b61015861019a366004610b4d565b6104ca565b6101376101ad366004610ae8565b61079f565b6101c56101c0366004610ab6565b610814565b60405161011b959493929190610c17565b6101586101e4366004610c57565b6108d6565b6101fc6101f7366004610ab6565b610901565b60405161011b96959493929190610c7f565b61015861021c366004610ae8565b60056020525f908152604090205481565b61024061023b366004610ae8565b610a4d565b60405161011b9190610cc8565b6101585f5481565b610277610263366004610ae8565b60036020525f908152604090205460ff1681565b604051901515815260200161011b565b600654610107906001600160a01b031681565b5f811180156102aa57505f548111155b6102f45760405162461bcd60e51b8152602060048201526016602482015275125b9d985b1a590818d95c9d1a599a58d85d1948125160521b60448201526064015b60405180910390fd5b5f818152600160205260409020600201546001600160a01b031633148061032557506006546001600160a01b031633145b6103715760405162461bcd60e51b815260206004820152601860248201527f4e6f7420617574686f72697a656420746f207265766f6b65000000000000000060448201526064016102eb565b5f8181526001602052604090206004015460ff16156103c45760405162461bcd60e51b815260206004820152600f60248201526e105b1c9958591e481c995d9bdad959608a1b60448201526064016102eb565b5f818152600160208190526040808320600401805460ff19169092179091555182917fefa6c5f47ac2523bb4db18032377bf7fdce0fa9d86eddcae1ca9bba38be615d791a250565b6006546001600160a01b031633146104365760405162461bcd60e51b81526004016102eb90610d0b565b600780546001600160a01b0319166001600160a01b0392909216919091179055565b6006546001600160a01b031633146104825760405162461bcd60e51b81526004016102eb90610d0b565b6001600160a01b0381165f81815260036020526040808220805460ff19169055517f8f3e6dced744d75443e2f2eb94962b368491dc80ec07cd3a3f7896069b6c452c9190a250565b335f9081526003602052604081205460ff166105195760405162461bcd60e51b815260206004820152600e60248201526d139bdd08185d5d1a1bdc9a5e995960921b60448201526064016102eb565b335f9081526005602090815260408083205481518084018c90528083019190915281518082038301815260609091018252805190830120808452600290925290912054156105a95760405162461bcd60e51b815260206004820152601d60248201527f43657274206861736820636f6c6c6973696f6e2f6475706c696361746500000060448201526064016102eb565b5f805490806105b783610d2e565b91905055506040518060a0016040528082815260200188888080601f0160208091040260200160405190810160405280939291908181526020018383808284375f9201829052509385525050336020808501919091524260408086019190915260609094018390528254835260018082529390922084518155918401519192830191610644915082610dea565b50604082810151600283810180546001600160a01b0319166001600160a01b03938416179055606085015160038501556080909401516004938401805460ff19169115159190911790555f805486825260209586528382208190558a83168252938552828120805460018101825590825285822001939093553383526005909352902082905560075416156107495760075460405163d0def52160e01b81526001600160a01b039091169063d0def5219061070790889088908890600401610ed2565b6020604051808303815f875af1158015610723573d5f803e3d5ffd5b505050506040513d601f19601f820116820180604052508101906107479190610eff565b505b336001600160a01b0316815f547f8b7b3939345c2d3402a3887240cbe3d70c3ac59b216d7f49869e5e7a4d347c0a8a8a4260405161078993929190610f16565b60405180910390a450505f549695505050505050565b6006546001600160a01b031633146107c95760405162461bcd60e51b81526004016102eb90610d0b565b6001600160a01b0381165f81815260036020526040808220805460ff19166001179055517f8b4006ca14f23d4e7aa8d120d1ab7c3761d650eefac1a5d6732dbea94b54ea249190a250565b600160208190525f91825260409091208054918101805461083490610d66565b80601f016020809104026020016040519081016040528092919081815260200182805461086090610d66565b80156108ab5780601f10610882576101008083540402835291602001916108ab565b820191905f5260205f20905b81548152906001019060200180831161088e57829003601f168201915b505050506002830154600384015460049094015492936001600160a01b039091169290915060ff1685565b6004602052815f5260405f2081815481106108ef575f80fd5b905f5260205f20015f91509150505481565b5f81815260026020526040812054606082808084810361093d57505060408051602081019091525f808252945084935091508290508080610a44565b5f858152600160208181526040808420815160a0810190925280548252928301805491939284019161096e90610d66565b80601f016020809104026020016040519081016040528092919081815260200182805461099a90610d66565b80156109e55780601f106109bc576101008083540402835291602001916109e5565b820191905f5260205f20905b8154815290600101906020018083116109c857829003601f168201915b505050918352505060028201546001600160a01b0316602080830191909152600383015460408084019190915260049093015460ff161515606092830152830151918301519083015160809093015160019a5091975095509093509150505b91939550919395565b6001600160a01b0381165f90815260046020908152604091829020805483518184028101840190945280845260609392830182828015610aaa57602002820191905f5260205f20905b815481526020019060010190808311610a96575b50505050509050919050565b5f60208284031215610ac6575f80fd5b5035919050565b80356001600160a01b0381168114610ae3575f80fd5b919050565b5f60208284031215610af8575f80fd5b610b0182610acd565b9392505050565b5f8083601f840112610b18575f80fd5b50813567ffffffffffffffff811115610b2f575f80fd5b602083019150836020828501011115610b46575f80fd5b9250929050565b5f805f805f8060808789031215610b62575f80fd5b86359550602087013567ffffffffffffffff80821115610b80575f80fd5b610b8c8a838b01610b08565b9097509550859150610ba060408a01610acd565b94506060890135915080821115610bb5575f80fd5b50610bc289828a01610b08565b979a9699509497509295939492505050565b5f81518084525f5b81811015610bf857602081850181015186830182015201610bdc565b505f602082860101526020601f19601f83011685010191505092915050565b85815260a060208201525f610c2f60a0830187610bd4565b6001600160a01b03959095166040830152506060810192909252151560809091015292915050565b5f8060408385031215610c68575f80fd5b610c7183610acd565b946020939093013593505050565b861515815285602082015260c060408201525f610c9f60c0830187610bd4565b6001600160a01b03959095166060830152506080810192909252151560a0909101529392505050565b602080825282518282018190525f9190848201906040850190845b81811015610cff57835183529284019291840191600101610ce3565b50909695505050505050565b6020808252600990820152682737ba1030b236b4b760b91b604082015260600190565b5f60018201610d4b57634e487b7160e01b5f52601160045260245ffd5b5060010190565b634e487b7160e01b5f52604160045260245ffd5b600181811c90821680610d7a57607f821691505b602082108103610d9857634e487b7160e01b5f52602260045260245ffd5b50919050565b601f821115610de557805f5260205f20601f840160051c81016020851015610dc35750805b601f840160051c820191505b81811015610de2575f8155600101610dcf565b50505b505050565b815167ffffffffffffffff811115610e0457610e04610d52565b610e1881610e128454610d66565b84610d9e565b602080601f831160018114610e4b575f8415610e345750858301515b5f19600386901b1c1916600185901b178555610ea2565b5f85815260208120601f198616915b82811015610e7957888601518255948401946001909101908401610e5a565b5085821015610e9657878501515f19600388901b60f8161c191681555b505060018460011b0185555b505050505050565b81835281816020850137505f828201602090810191909152601f909101601f19169091010190565b6001600160a01b03841681526040602082018190525f90610ef69083018486610eaa565b95945050505050565b5f60208284031215610f0f575f80fd5b5051919050565b604081525f610f29604083018587610eaa565b905082602083015294935050505056fea26469706673582212208264b399f8734bc7207ac7aaf95c72077283d50751817dbc965a766d476bc75064736f6c63430008180033","opcodes":"PUSH1 0x80 PUSH1 0x40 MSTORE CALLVALUE DUP1 ISZERO PUSH2 0xF JUMPI PUSH0 DUP1 REVERT JUMPDEST POP PUSH1 0x6 DUP1 SLOAD PUSH1 0x1 PUSH1 0x1 PUSH1 0xA0 SHL SUB NOT AND CALLER SWAP1 DUP2 OR SWAP1 SWAP2 SSTORE PUSH0 SWAP1 DUP2 MSTORE PUSH1 0x3 PUSH1 0x20 MSTORE PUSH1 0x40 SWAP1 KECCAK256 DUP1 SLOAD PUSH1 0xFF NOT AND PUSH1 0x1 OR SWAP1 SSTORE PUSH2 0xF6F DUP1 PUSH2 0x4A PUSH0 CODECOPY PUSH0 RETURN INVALID PUSH1 0x80 PUSH1 0x40 MSTORE CALLVALUE DUP1 ISZERO PUSH2 0xF JUMPI PUSH0 DUP1 REVERT JUMPDEST POP PUSH1 0x4 CALLDATASIZE LT PUSH2 0xF0 JUMPI PUSH0 CALLDATALOAD PUSH1 0xE0 SHR DUP1 PUSH4 0x663B3E22 GT PUSH2 0x93 JUMPI DUP1 PUSH4 0xA041D2CA GT PUSH2 0x63 JUMPI DUP1 PUSH4 0xA041D2CA EQ PUSH2 0x22D JUMPI DUP1 PUSH4 0xD4E207A2 EQ PUSH2 0x24D JUMPI DUP1 PUSH4 0xF731FA0F EQ PUSH2 0x255 JUMPI DUP1 PUSH4 0xF851A440 EQ PUSH2 0x287 JUMPI PUSH0 DUP1 REVERT JUMPDEST DUP1 PUSH4 0x663B3E22 EQ PUSH2 0x1B2 JUMPI DUP1 PUSH4 0x728F133B EQ PUSH2 0x1D6 JUMPI DUP1 PUSH4 0x850C1768 EQ PUSH2 0x1E9 JUMPI DUP1 PUSH4 0x96C73534 EQ PUSH2 0x20E JUMPI PUSH0 DUP1 REVERT JUMPDEST DUP1 PUSH4 0x30095F89 GT PUSH2 0xCE JUMPI DUP1 PUSH4 0x30095F89 EQ PUSH2 0x166 JUMPI DUP1 PUSH4 0x3A71DAF4 EQ PUSH2 0x179 JUMPI DUP1 PUSH4 0x4156D567 EQ PUSH2 0x18C JUMPI DUP1 PUSH4 0x436693D5 EQ PUSH2 0x19F JUMPI PUSH0 DUP1 REVERT JUMPDEST DUP1 PUSH4 0x6158360 EQ PUSH2 0xF4 JUMPI DUP1 PUSH4 0x6F5497E EQ PUSH2 0x124 JUMPI DUP1 PUSH4 0x95F0773 EQ PUSH2 0x139 JUMPI JUMPDEST PUSH0 DUP1 REVERT JUMPDEST PUSH1 0x7 SLOAD PUSH2 0x107 SWAP1 PUSH1 0x1 PUSH1 0x1 PUSH1 0xA0 SHL SUB AND DUP2 JUMP JUMPDEST PUSH1 0x40 MLOAD PUSH1 0x1 PUSH1 0x1 PUSH1 0xA0 SHL SUB SWAP1 SWAP2 AND DUP2 MSTORE PUSH1 0x20 ADD JUMPDEST PUSH1 0x40 MLOAD DUP1 SWAP2 SUB SWAP1 RETURN JUMPDEST PUSH2 0x137 PUSH2 0x132 CALLDATASIZE PUSH1 0x4 PUSH2 0xAB6 JUMP JUMPDEST PUSH2 0x29A JUMP JUMPDEST STOP JUMPDEST PUSH2 0x158 PUSH2 0x147 CALLDATASIZE PUSH1 0x4 PUSH2 0xAB6 JUMP JUMPDEST PUSH1 0x2 PUSH1 0x20 MSTORE PUSH0 SWAP1 DUP2 MSTORE PUSH1 0x40 SWAP1 KECCAK256 SLOAD DUP2 JUMP JUMPDEST PUSH1 0x40 MLOAD SWAP1 DUP2 MSTORE PUSH1 0x20 ADD PUSH2 0x11B JUMP JUMPDEST PUSH2 0x137 PUSH2 0x174 CALLDATASIZE PUSH1 0x4 PUSH2 0xAE8 JUMP JUMPDEST PUSH2 0x40C JUMP JUMPDEST PUSH2 0x137 PUSH2 0x187 CALLDATASIZE PUSH1 0x4 PUSH2 0xAE8 JUMP JUMPDEST PUSH2 0x458 JUMP JUMPDEST PUSH2 0x158 PUSH2 0x19A CALLDATASIZE PUSH1 0x4 PUSH2 0xB4D JUMP JUMPDEST PUSH2 0x4CA JUMP JUMPDEST PUSH2 0x137 PUSH2 0x1AD CALLDATASIZE PUSH1 0x4 PUSH2 0xAE8 JUMP JUMPDEST PUSH2 0x79F JUMP JUMPDEST PUSH2 0x1C5 PUSH2 0x1C0 CALLDATASIZE PUSH1 0x4 PUSH2 0xAB6 JUMP JUMPDEST PUSH2 0x814 JUMP JUMPDEST PUSH1 0x40 MLOAD PUSH2 0x11B SWAP6 SWAP5 SWAP4 SWAP3 SWAP2 SWAP1 PUSH2 0xC17 JUMP JUMPDEST PUSH2 0x158 PUSH2 0x1E4 CALLDATASIZE PUSH1 0x4 PUSH2 0xC57 JUMP JUMPDEST PUSH2 0x8D6 JUMP JUMPDEST PUSH2 0x1FC PUSH2 0x1F7 CALLDATASIZE PUSH1 0x4 PUSH2 0xAB6 JUMP JUMPDEST PUSH2 0x901 JUMP JUMPDEST PUSH1 0x40 MLOAD PUSH2 0x11B SWAP7 SWAP6 SWAP5 SWAP4 SWAP3 SWAP2 SWAP1 PUSH2 0xC7F JUMP JUMPDEST PUSH2 0x158 PUSH2 0x21C CALLDATASIZE PUSH1 0x4 PUSH2 0xAE8 JUMP JUMPDEST PUSH1 0x5 PUSH1 0x20 MSTORE PUSH0 SWAP1 DUP2 MSTORE PUSH1 0x40 SWAP1 KECCAK256 SLOAD DUP2 JUMP JUMPDEST PUSH2 0x240 PUSH2 0x23B CALLDATASIZE PUSH1 0x4 PUSH2 0xAE8 JUMP JUMPDEST PUSH2 0xA4D JUMP JUMPDEST PUSH1 0x40 MLOAD PUSH2 0x11B SWAP2 SWAP1 PUSH2 0xCC8 JUMP JUMPDEST PUSH2 0x158 PUSH0 SLOAD DUP2 JUMP JUMPDEST PUSH2 0x277 PUSH2 0x263 CALLDATASIZE PUSH1 0x4 PUSH2 0xAE8 JUMP JUMPDEST PUSH1 0x3 PUSH1 0x20 MSTORE PUSH0 SWAP1 DUP2 MSTORE PUSH1 0x40 SWAP1 KECCAK256 SLOAD PUSH1 0xFF AND DUP2 JUMP JUMPDEST PUSH1 0x40 MLOAD SWAP1 ISZERO ISZERO DUP2 MSTORE PUSH1 0x20 ADD PUSH2 0x11B JUMP JUMPDEST PUSH1 0x6 SLOAD PUSH2 0x107 SWAP1 PUSH1 0x1 PUSH1 0x1 PUSH1 0xA0 SHL SUB AND DUP2 JUMP JUMPDEST PUSH0 DUP2 GT DUP1 ISZERO PUSH2 0x2AA JUMPI POP PUSH0 SLOAD DUP2 GT ISZERO JUMPDEST PUSH2 0x2F4 JUMPI PUSH1 0x40 MLOAD PUSH3 0x461BCD PUSH1 0xE5 SHL DUP2 MSTORE PUSH1 0x20 PUSH1 0x4 DUP3 ADD MSTORE PUSH1 0x16 PUSH1 0x24 DUP3 ADD MSTORE PUSH22 0x125B9D985B1A590818D95C9D1A599A58D85D19481251 PUSH1 0x52 SHL PUSH1 0x44 DUP3 ADD MSTORE PUSH1 0x64 ADD JUMPDEST PUSH1 0x40 MLOAD DUP1 SWAP2 SUB SWAP1 REVERT JUMPDEST PUSH0 DUP2 DUP2 MSTORE PUSH1 0x1 PUSH1 0x20 MSTORE PUSH1 0x40 SWAP1 KECCAK256 PUSH1 0x2 ADD SLOAD PUSH1 0x1 PUSH1 0x1 PUSH1 0xA0 SHL SUB AND CALLER EQ DUP1 PUSH2 0x325 JUMPI POP PUSH1 0x6 SLOAD PUSH1 0x1 PUSH1 0x1 PUSH1 0xA0 SHL SUB AND CALLER EQ JUMPDEST PUSH2 0x371 JUMPI PUSH1 0x40 MLOAD PUSH3 0x461BCD PUSH1 0xE5 SHL DUP2 MSTORE PUSH1 0x20 PUSH1 0x4 DUP3 ADD MSTORE PUSH1 0x18 PUSH1 0x24 DUP3 ADD MSTORE PUSH32 0x4E6F7420617574686F72697A656420746F207265766F6B650000000000000000 PUSH1 0x44 DUP3 ADD MSTORE PUSH1 0x64 ADD PUSH2 0x2EB JUMP JUMPDEST PUSH0 DUP2 DUP2 MSTORE PUSH1 0x1 PUSH1 0x20 MSTORE PUSH1 0x40 SWAP1 KECCAK256 PUSH1 0x4 ADD SLOAD PUSH1 0xFF AND ISZERO PUSH2 0x3C4 JUMPI PUSH1 0x40 MLOAD PUSH3 0x461BCD PUSH1 0xE5 SHL DUP2 MSTORE PUSH1 0x20 PUSH1 0x4 DUP3 ADD MSTORE PUSH1 0xF PUSH1 0x24 DUP3 ADD MSTORE PUSH15 0x105B1C9958591E481C995D9BDAD959 PUSH1 0x8A SHL PUSH1 0x44 DUP3 ADD MSTORE PUSH1 0x64 ADD PUSH2 0x2EB JUMP JUMPDEST PUSH0 DUP2 DUP2 MSTORE PUSH1 0x1 PUSH1 0x20 DUP2 SWAP1 MSTORE PUSH1 0x40 DUP1 DUP4 KECCAK256 PUSH1 0x4 ADD DUP1 SLOAD PUSH1 0xFF NOT AND SWAP1 SWAP3 OR SWAP1 SWAP2 SSTORE MLOAD DUP3 SWAP2 PUSH32 0xEFA6C5F47AC2523BB4DB18032377BF7FDCE0FA9D86EDDCAE1CA9BBA38BE615D7 SWAP2 LOG2 POP JUMP JUMPDEST PUSH1 0x6 SLOAD PUSH1 0x1 PUSH1 0x1 PUSH1 0xA0 SHL SUB AND CALLER EQ PUSH2 0x436 JUMPI PUSH1 0x40 MLOAD PUSH3 0x461BCD PUSH1 0xE5 SHL DUP2 MSTORE PUSH1 0x4 ADD PUSH2 0x2EB SWAP1 PUSH2 0xD0B JUMP JUMPDEST PUSH1 0x7 DUP1 SLOAD PUSH1 0x1 PUSH1 0x1 PUSH1 0xA0 SHL SUB NOT AND PUSH1 0x1 PUSH1 0x1 PUSH1 0xA0 SHL SUB SWAP3 SWAP1 SWAP3 AND SWAP2 SWAP1 SWAP2 OR SWAP1 SSTORE JUMP JUMPDEST PUSH1 0x6 SLOAD PUSH1 0x1 PUSH1 0x1 PUSH1 0xA0 SHL SUB AND CALLER EQ PUSH2 0x482 JUMPI PUSH1 0x40 MLOAD PUSH3 0x461BCD PUSH1 0xE5 SHL DUP2 MSTORE PUSH1 0x4 ADD PUSH2 0x2EB SWAP1 PUSH2 0xD0B JUMP JUMPDEST PUSH1 0x1 PUSH1 0x1 PUSH1 0xA0 SHL SUB DUP2 AND PUSH0 DUP2 DUP2 MSTORE PUSH1 0x3 PUSH1 0x20 MSTORE PUSH1 0x40 DUP1 DUP3 KECCAK256 DUP1 SLOAD PUSH1 0xFF NOT AND SWAP1 SSTORE MLOAD PUSH32 0x8F3E6DCED744D75443E2F2EB94962B368491DC80EC07CD3A3F7896069B6C452C SWAP2 SWAP1 LOG2 POP JUMP JUMPDEST CALLER PUSH0 SWAP1 DUP2 MSTORE PUSH1 0x3 PUSH1 0x20 MSTORE PUSH1 0x40 DUP2 KECCAK256 SLOAD PUSH1 0xFF AND PUSH2 0x519 JUMPI PUSH1 0x40 MLOAD PUSH3 0x461BCD PUSH1 0xE5 SHL DUP2 MSTORE PUSH1 0x20 PUSH1 0x4 DUP3 ADD MSTORE PUSH1 0xE PUSH1 0x24 DUP3 ADD MSTORE PUSH14 0x139BDD08185D5D1A1BDC9A5E9959 PUSH1 0x92 SHL PUSH1 0x44 DUP3 ADD MSTORE PUSH1 0x64 ADD PUSH2 0x2EB JUMP JUMPDEST CALLER PUSH0 SWAP1 DUP2 MSTORE PUSH1 0x5 PUSH1 0x20 SWAP1 DUP2 MSTORE PUSH1 0x40 DUP1 DUP4 KECCAK256 SLOAD DUP2 MLOAD DUP1 DUP5 ADD DUP13 SWAP1 MSTORE DUP1 DUP4 ADD SWAP2 SWAP1 SWAP2 MSTORE DUP2 MLOAD DUP1 DUP3 SUB DUP4 ADD DUP2 MSTORE PUSH1 0x60 SWAP1 SWAP2 ADD DUP3 MSTORE DUP1 MLOAD SWAP1 DUP4 ADD KECCAK256 DUP1 DUP5 MSTORE PUSH1 0x2 SWAP1 SWAP3 MSTORE SWAP1 SWAP2 KECCAK256 SLOAD ISZERO PUSH2 0x5A9 JUMPI PUSH1 0x40 MLOAD PUSH3 0x461BCD PUSH1 0xE5 SHL DUP2 MSTORE PUSH1 0x20 PUSH1 0x4 DUP3 ADD MSTORE PUSH1 0x1D PUSH1 0x24 DUP3 ADD MSTORE PUSH32 0x43657274206861736820636F6C6C6973696F6E2F6475706C6963617465000000 PUSH1 0x44 DUP3 ADD MSTORE PUSH1 0x64 ADD PUSH2 0x2EB JUMP JUMPDEST PUSH0 DUP1 SLOAD SWAP1 DUP1 PUSH2 0x5B7 DUP4 PUSH2 0xD2E JUMP JUMPDEST SWAP2 SWAP1 POP SSTORE POP PUSH1 0x40 MLOAD DUP1 PUSH1 0xA0 ADD PUSH1 0x40 MSTORE DUP1 DUP3 DUP2 MSTORE PUSH1 0x20 ADD DUP9 DUP9 DUP1 DUP1 PUSH1 0x1F ADD PUSH1 0x20 DUP1 SWAP2 DIV MUL PUSH1 0x20 ADD PUSH1 0x40 MLOAD SWAP1 DUP2 ADD PUSH1 0x40 MSTORE DUP1 SWAP4 SWAP3 SWAP2 SWAP1 DUP2 DUP2 MSTORE PUSH1 0x20 ADD DUP4 DUP4 DUP1 DUP3 DUP5 CALLDATACOPY PUSH0 SWAP3 ADD DUP3 SWAP1 MSTORE POP SWAP4 DUP6 MSTORE POP POP CALLER PUSH1 0x20 DUP1 DUP6 ADD SWAP2 SWAP1 SWAP2 MSTORE TIMESTAMP PUSH1 0x40 DUP1 DUP7 ADD SWAP2 SWAP1 SWAP2 MSTORE PUSH1 0x60 SWAP1 SWAP5 ADD DUP4 SWAP1 MSTORE DUP3 SLOAD DUP4 MSTORE PUSH1 0x1 DUP1 DUP3 MSTORE SWAP4 SWAP1 SWAP3 KECCAK256 DUP5 MLOAD DUP2 SSTORE SWAP2 DUP5 ADD MLOAD SWAP2 SWAP3 DUP4 ADD SWAP2 PUSH2 0x644 SWAP2 POP DUP3 PUSH2 0xDEA JUMP JUMPDEST POP PUSH1 0x40 DUP3 DUP2 ADD MLOAD PUSH1 0x2 DUP4 DUP2 ADD DUP1 SLOAD PUSH1 0x1 PUSH1 0x1 PUSH1 0xA0 SHL SUB NOT AND PUSH1 0x1 PUSH1 0x1 PUSH1 0xA0 SHL SUB SWAP4 DUP5 AND OR SWAP1 SSTORE PUSH1 0x60 DUP6 ADD MLOAD PUSH1 0x3 DUP6 ADD SSTORE PUSH1 0x80 SWAP1 SWAP5 ADD MLOAD PUSH1 0x4 SWAP4 DUP5 ADD DUP1 SLOAD PUSH1 0xFF NOT AND SWAP2 ISZERO ISZERO SWAP2 SWAP1 SWAP2 OR SWAP1 SSTORE PUSH0 DUP1 SLOAD DUP7 DUP3 MSTORE PUSH1 0x20 SWAP6 DUP7 MSTORE DUP4 DUP3 KECCAK256 DUP2 SWAP1 SSTORE DUP11 DUP4 AND DUP3 MSTORE SWAP4 DUP6 MSTORE DUP3 DUP2 KECCAK256 DUP1 SLOAD PUSH1 0x1 DUP2 ADD DUP3 SSTORE SWAP1 DUP3 MSTORE DUP6 DUP3 KECCAK256 ADD SWAP4 SWAP1 SWAP4 SSTORE CALLER DUP4 MSTORE PUSH1 0x5 SWAP1 SWAP4 MSTORE SWAP1 KECCAK256 DUP3 SWAP1 SSTORE PUSH1 0x7 SLOAD AND ISZERO PUSH2 0x749 JUMPI PUSH1 0x7 SLOAD PUSH1 0x40 MLOAD PUSH4 0xD0DEF521 PUSH1 0xE0 SHL DUP2 MSTORE PUSH1 0x1 PUSH1 0x1 PUSH1 0xA0 SHL SUB SWAP1 SWAP2 AND SWAP1 PUSH4 0xD0DEF521 SWAP1 PUSH2 0x707 SWAP1 DUP9 SWAP1 DUP9 SWAP1 DUP9 SWAP1 PUSH1 0x4 ADD PUSH2 0xED2 JUMP JUMPDEST PUSH1 0x20 PUSH1 0x40 MLOAD DUP1 DUP4 SUB DUP2 PUSH0 DUP8 GAS CALL ISZERO DUP1 ISZERO PUSH2 0x723 JUMPI RETURNDATASIZE PUSH0 DUP1 RETURNDATACOPY RETURNDATASIZE PUSH0 REVERT JUMPDEST POP POP POP POP PUSH1 0x40 MLOAD RETURNDATASIZE PUSH1 0x1F NOT PUSH1 0x1F DUP3 ADD AND DUP3 ADD DUP1 PUSH1 0x40 MSTORE POP DUP2 ADD SWAP1 PUSH2 0x747 SWAP2 SWAP1 PUSH2 0xEFF JUMP JUMPDEST POP JUMPDEST CALLER PUSH1 0x1 PUSH1 0x1 PUSH1 0xA0 SHL SUB AND DUP2 PUSH0 SLOAD PUSH32 0x8B7B3939345C2D3402A3887240CBE3D70C3AC59B216D7F49869E5E7A4D347C0A DUP11 DUP11 TIMESTAMP PUSH1 0x40 MLOAD PUSH2 0x789 SWAP4 SWAP3 SWAP2 SWAP1 PUSH2 0xF16 JUMP JUMPDEST PUSH1 0x40 MLOAD DUP1 SWAP2 SUB SWAP1 LOG4 POP POP PUSH0 SLOAD SWAP7 SWAP6 POP POP POP POP POP POP JUMP JUMPDEST PUSH1 0x6 SLOAD PUSH1 0x1 PUSH1 0x1 PUSH1 0xA0 SHL SUB AND CALLER EQ PUSH2 0x7C9 JUMPI PUSH1 0x40 MLOAD PUSH3 0x461BCD PUSH1 0xE5 SHL DUP2 MSTORE PUSH1 0x4 ADD PUSH2 0x2EB SWAP1 PUSH2 0xD0B JUMP JUMPDEST PUSH1 0x1 PUSH1 0x1 PUSH1 0xA0 SHL SUB DUP2 AND PUSH0 DUP2 DUP2 MSTORE PUSH1 0x3 PUSH1 0x20 MSTORE PUSH1 0x40 DUP1 DUP3 KECCAK256 DUP1 SLOAD PUSH1 0xFF NOT AND PUSH1 0x1 OR SWAP1 SSTORE MLOAD PUSH32 0x8B4006CA14F23D4E7AA8D120D1AB7C3761D650EEFAC1A5D6732DBEA94B54EA24 SWAP2 SWAP1 LOG2 POP JUMP JUMPDEST PUSH1 0x1 PUSH1 0x20 DUP2 SWAP1 MSTORE PUSH0 SWAP2 DUP3 MSTORE PUSH1 0x40 SWAP1 SWAP2 KECCAK256 DUP1 SLOAD SWAP2 DUP2 ADD DUP1 SLOAD PUSH2 0x834 SWAP1 PUSH2 0xD66 JUMP JUMPDEST DUP1 PUSH1 0x1F ADD PUSH1 0x20 DUP1 SWAP2 DIV MUL PUSH1 0x20 ADD PUSH1 0x40 MLOAD SWAP1 DUP2 ADD PUSH1 0x40 MSTORE DUP1 SWAP3 SWAP2 SWAP1 DUP2 DUP2 MSTORE PUSH1 0x20 ADD DUP3 DUP1 SLOAD PUSH2 0x860 SWAP1 PUSH2 0xD66 JUMP JUMPDEST DUP1 ISZERO PUSH2 0x8AB JUMPI DUP1 PUSH1 0x1F LT PUSH2 0x882 JUMPI PUSH2 0x100 DUP1 DUP4 SLOAD DIV MUL DUP4 MSTORE SWAP2 PUSH1 0x20 ADD SWAP2 PUSH2 0x8AB JUMP JUMPDEST DUP3 ADD SWAP2 SWAP1 PUSH0 MSTORE PUSH1 0x20 PUSH0 KECCAK256 SWAP1 JUMPDEST DUP2 SLOAD DUP2 MSTORE SWAP1 PUSH1 0x1 ADD SWAP1 PUSH1 0x20 ADD DUP1 DUP4 GT PUSH2 0x88E JUMPI DUP3 SWAP1 SUB PUSH1 0x1F AND DUP3 ADD SWAP2 JUMPDEST POP POP POP POP PUSH1 0x2 DUP4 ADD SLOAD PUSH1 0x3 DUP5 ADD SLOAD PUSH1 0x4 SWAP1 SWAP5 ADD SLOAD SWAP3 SWAP4 PUSH1 0x1 PUSH1 0x1 PUSH1 0xA0 SHL SUB SWAP1 SWAP2 AND SWAP3 SWAP1 SWAP2 POP PUSH1 0xFF AND DUP6 JUMP JUMPDEST PUSH1 0x4 PUSH1 0x20 MSTORE DUP2 PUSH0 MSTORE PUSH1 0x40 PUSH0 KECCAK256 DUP2 DUP2 SLOAD DUP2 LT PUSH2 0x8EF JUMPI PUSH0 DUP1 REVERT JUMPDEST SWAP1 PUSH0 MSTORE PUSH1 0x20 PUSH0 KECCAK256 ADD PUSH0 SWAP2 POP SWAP2 POP POP SLOAD DUP2 JUMP JUMPDEST PUSH0 DUP2 DUP2 MSTORE PUSH1 0x2 PUSH1 0x20 MSTORE PUSH1 0x40 DUP2 KECCAK256 SLOAD PUSH1 0x60 DUP3 DUP1 DUP1 DUP5 DUP2 SUB PUSH2 0x93D JUMPI POP POP PUSH1 0x40 DUP1 MLOAD PUSH1 0x20 DUP2 ADD SWAP1 SWAP2 MSTORE PUSH0 DUP1 DUP3 MSTORE SWAP5 POP DUP5 SWAP4 POP SWAP2 POP DUP3 SWAP1 POP DUP1 DUP1 PUSH2 0xA44 JUMP JUMPDEST PUSH0 DUP6 DUP2 MSTORE PUSH1 0x1 PUSH1 0x20 DUP2 DUP2 MSTORE PUSH1 0x40 DUP1 DUP5 KECCAK256 DUP2 MLOAD PUSH1 0xA0 DUP2 ADD SWAP1 SWAP3 MSTORE DUP1 SLOAD DUP3 MSTORE SWAP3 DUP4 ADD DUP1 SLOAD SWAP2 SWAP4 SWAP3 DUP5 ADD SWAP2 PUSH2 0x96E SWAP1 PUSH2 0xD66 JUMP JUMPDEST DUP1 PUSH1 0x1F ADD PUSH1 0x20 DUP1 SWAP2 DIV MUL PUSH1 0x20 ADD PUSH1 0x40 MLOAD SWAP1 DUP2 ADD PUSH1 0x40 MSTORE DUP1 SWAP3 SWAP2 SWAP1 DUP2 DUP2 MSTORE PUSH1 0x20 ADD DUP3 DUP1 SLOAD PUSH2 0x99A SWAP1 PUSH2 0xD66 JUMP JUMPDEST DUP1 ISZERO PUSH2 0x9E5 JUMPI DUP1 PUSH1 0x1F LT PUSH2 0x9BC JUMPI PUSH2 0x100 DUP1 DUP4 SLOAD DIV MUL DUP4 MSTORE SWAP2 PUSH1 0x20 ADD SWAP2 PUSH2 0x9E5 JUMP JUMPDEST DUP3 ADD SWAP2 SWAP1 PUSH0 MSTORE PUSH1 0x20 PUSH0 KECCAK256 SWAP1 JUMPDEST DUP2 SLOAD DUP2 MSTORE SWAP1 PUSH1 0x1 ADD SWAP1 PUSH1 0x20 ADD DUP1 DUP4 GT PUSH2 0x9C8 JUMPI DUP3 SWAP1 SUB PUSH1 0x1F AND DUP3 ADD SWAP2 JUMPDEST POP POP POP SWAP2 DUP4 MSTORE POP POP PUSH1 0x2 DUP3 ADD SLOAD PUSH1 0x1 PUSH1 0x1 PUSH1 0xA0 SHL SUB AND PUSH1 0x20 DUP1 DUP4 ADD SWAP2 SWAP1 SWAP2 MSTORE PUSH1 0x3 DUP4 ADD SLOAD PUSH1 0x40 DUP1 DUP5 ADD SWAP2 SWAP1 SWAP2 MSTORE PUSH1 0x4 SWAP1 SWAP4 ADD SLOAD PUSH1 0xFF AND ISZERO ISZERO PUSH1 0x60 SWAP3 DUP4 ADD MSTORE DUP4 ADD MLOAD SWAP2 DUP4 ADD MLOAD SWAP1 DUP4 ADD MLOAD PUSH1 0x80 SWAP1 SWAP4 ADD MLOAD PUSH1 0x1 SWAP11 POP SWAP2 SWAP8 POP SWAP6 POP SWAP1 SWAP4 POP SWAP2 POP POP JUMPDEST SWAP2 SWAP4 SWAP6 POP SWAP2 SWAP4 SWAP6 JUMP JUMPDEST PUSH1 0x1 PUSH1 0x1 PUSH1 0xA0 SHL SUB DUP2 AND PUSH0 SWAP1 DUP2 MSTORE PUSH1 0x4 PUSH1 0x20 SWAP1 DUP2 MSTORE PUSH1 0x40 SWAP2 DUP3 SWAP1 KECCAK256 DUP1 SLOAD DUP4 MLOAD DUP2 DUP5 MUL DUP2 ADD DUP5 ADD SWAP1 SWAP5 MSTORE DUP1 DUP5 MSTORE PUSH1 0x60 SWAP4 SWAP3 DUP4 ADD DUP3 DUP3 DUP1 ISZERO PUSH2 0xAAA JUMPI PUSH1 0x20 MUL DUP3 ADD SWAP2 SWAP1 PUSH0 MSTORE PUSH1 0x20 PUSH0 KECCAK256 SWAP1 JUMPDEST DUP2 SLOAD DUP2 MSTORE PUSH1 0x20 ADD SWAP1 PUSH1 0x1 ADD SWAP1 DUP1 DUP4 GT PUSH2 0xA96 JUMPI JUMPDEST POP POP POP POP POP SWAP1 POP SWAP2 SWAP1 POP JUMP JUMPDEST PUSH0 PUSH1 0x20 DUP3 DUP5 SUB SLT ISZERO PUSH2 0xAC6 JUMPI PUSH0 DUP1 REVERT JUMPDEST POP CALLDATALOAD SWAP2 SWAP1 POP JUMP JUMPDEST DUP1 CALLDATALOAD PUSH1 0x1 PUSH1 0x1 PUSH1 0xA0 SHL SUB DUP2 AND DUP2 EQ PUSH2 0xAE3 JUMPI PUSH0 DUP1 REVERT JUMPDEST SWAP2 SWAP1 POP JUMP JUMPDEST PUSH0 PUSH1 0x20 DUP3 DUP5 SUB SLT ISZERO PUSH2 0xAF8 JUMPI PUSH0 DUP1 REVERT JUMPDEST PUSH2 0xB01 DUP3 PUSH2 0xACD JUMP JUMPDEST SWAP4 SWAP3 POP POP POP JUMP JUMPDEST PUSH0 DUP1 DUP4 PUSH1 0x1F DUP5 ADD SLT PUSH2 0xB18 JUMPI PUSH0 DUP1 REVERT JUMPDEST POP DUP2 CALLDATALOAD PUSH8 0xFFFFFFFFFFFFFFFF DUP2 GT ISZERO PUSH2 0xB2F JUMPI PUSH0 DUP1 REVERT JUMPDEST PUSH1 0x20 DUP4 ADD SWAP2 POP DUP4 PUSH1 0x20 DUP3 DUP6 ADD ADD GT ISZERO PUSH2 0xB46 JUMPI PUSH0 DUP1 REVERT JUMPDEST SWAP3 POP SWAP3 SWAP1 POP JUMP JUMPDEST PUSH0 DUP1 PUSH0 DUP1 PUSH0 DUP1 PUSH1 0x80 DUP8 DUP10 SUB SLT ISZERO PUSH2 0xB62 JUMPI PUSH0 DUP1 REVERT JUMPDEST DUP7 CALLDATALOAD SWAP6 POP PUSH1 0x20 DUP8 ADD CALLDATALOAD PUSH8 0xFFFFFFFFFFFFFFFF DUP1 DUP3 GT ISZERO PUSH2 0xB80 JUMPI PUSH0 DUP1 REVERT JUMPDEST PUSH2 0xB8C DUP11 DUP4 DUP12 ADD PUSH2 0xB08 JUMP JUMPDEST SWAP1 SWAP8 POP SWAP6 POP DUP6 SWAP2 POP PUSH2 0xBA0 PUSH1 0x40 DUP11 ADD PUSH2 0xACD JUMP JUMPDEST SWAP5 POP PUSH1 0x60 DUP10 ADD CALLDATALOAD SWAP2 POP DUP1 DUP3 GT ISZERO PUSH2 0xBB5 JUMPI PUSH0 DUP1 REVERT JUMPDEST POP PUSH2 0xBC2 DUP10 DUP3 DUP11 ADD PUSH2 0xB08 JUMP JUMPDEST SWAP8 SWAP11 SWAP7 SWAP10 POP SWAP5 SWAP8 POP SWAP3 SWAP6 SWAP4 SWAP5 SWAP3 POP POP POP JUMP JUMPDEST PUSH0 DUP2 MLOAD DUP1 DUP5 MSTORE PUSH0 JUMPDEST DUP2 DUP2 LT ISZERO PUSH2 0xBF8 JUMPI PUSH1 0x20 DUP2 DUP6 ADD DUP2 ADD MLOAD DUP7 DUP4 ADD DUP3 ADD MSTORE ADD PUSH2 0xBDC JUMP JUMPDEST POP PUSH0 PUSH1 0x20 DUP3 DUP7 ADD ADD MSTORE PUSH1 0x20 PUSH1 0x1F NOT PUSH1 0x1F DUP4 ADD AND DUP6 ADD ADD SWAP2 POP POP SWAP3 SWAP2 POP POP JUMP JUMPDEST DUP6 DUP2 MSTORE PUSH1 0xA0 PUSH1 0x20 DUP3 ADD MSTORE PUSH0 PUSH2 0xC2F PUSH1 0xA0 DUP4 ADD DUP8 PUSH2 0xBD4 JUMP JUMPDEST PUSH1 0x1 PUSH1 0x1 PUSH1 0xA0 SHL SUB SWAP6 SWAP1 SWAP6 AND PUSH1 0x40 DUP4 ADD MSTORE POP PUSH1 0x60 DUP2 ADD SWAP3 SWAP1 SWAP3 MSTORE ISZERO ISZERO PUSH1 0x80 SWAP1 SWAP2 ADD MSTORE SWAP3 SWAP2 POP POP JUMP JUMPDEST PUSH0 DUP1 PUSH1 0x40 DUP4 DUP6 SUB SLT ISZERO PUSH2 0xC68 JUMPI PUSH0 DUP1 REVERT JUMPDEST PUSH2 0xC71 DUP4 PUSH2 0xACD JUMP JUMPDEST SWAP5 PUSH1 0x20 SWAP4 SWAP1 SWAP4 ADD CALLDATALOAD SWAP4 POP POP POP JUMP JUMPDEST DUP7 ISZERO ISZERO DUP2 MSTORE DUP6 PUSH1 0x20 DUP3 ADD MSTORE PUSH1 0xC0 PUSH1 0x40 DUP3 ADD MSTORE PUSH0 PUSH2 0xC9F PUSH1 0xC0 DUP4 ADD DUP8 PUSH2 0xBD4 JUMP JUMPDEST PUSH1 0x1 PUSH1 0x1 PUSH1 0xA0 SHL SUB SWAP6 SWAP1 SWAP6 AND PUSH1 0x60 DUP4 ADD MSTORE POP PUSH1 0x80 DUP2 ADD SWAP3 SWAP1 SWAP3 MSTORE ISZERO ISZERO PUSH1 0xA0 SWAP1 SWAP2 ADD MSTORE SWAP4 SWAP3 POP POP POP JUMP JUMPDEST PUSH1 0x20 DUP1 DUP3 MSTORE DUP3 MLOAD DUP3 DUP3 ADD DUP2 SWAP1 MSTORE PUSH0 SWAP2 SWAP1 DUP5 DUP3 ADD SWAP1 PUSH1 0x40 DUP6 ADD SWAP1 DUP5 JUMPDEST DUP2 DUP2 LT ISZERO PUSH2 0xCFF JUMPI DUP4 MLOAD DUP4 MSTORE SWAP3 DUP5 ADD SWAP3 SWAP2 DUP5 ADD SWAP2 PUSH1 0x1 ADD PUSH2 0xCE3 JUMP JUMPDEST POP SWAP1 SWAP7 SWAP6 POP POP POP POP POP POP JUMP JUMPDEST PUSH1 0x20 DUP1 DUP3 MSTORE PUSH1 0x9 SWAP1 DUP3 ADD MSTORE PUSH9 0x2737BA1030B236B4B7 PUSH1 0xB9 SHL PUSH1 0x40 DUP3 ADD MSTORE PUSH1 0x60 ADD SWAP1 JUMP JUMPDEST PUSH0 PUSH1 0x1 DUP3 ADD PUSH2 0xD4B JUMPI PUSH4 0x4E487B71 PUSH1 0xE0 SHL PUSH0 MSTORE PUSH1 0x11 PUSH1 0x4 MSTORE PUSH1 0x24 PUSH0 REVERT JUMPDEST POP PUSH1 0x1 ADD SWAP1 JUMP JUMPDEST PUSH4 0x4E487B71 PUSH1 0xE0 SHL PUSH0 MSTORE PUSH1 0x41 PUSH1 0x4 MSTORE PUSH1 0x24 PUSH0 REVERT JUMPDEST PUSH1 0x1 DUP2 DUP2 SHR SWAP1 DUP3 AND DUP1 PUSH2 0xD7A JUMPI PUSH1 0x7F DUP3 AND SWAP2 POP JUMPDEST PUSH1 0x20 DUP3 LT DUP2 SUB PUSH2 0xD98 JUMPI PUSH4 0x4E487B71 PUSH1 0xE0 SHL PUSH0 MSTORE PUSH1 0x22 PUSH1 0x4 MSTORE PUSH1 0x24 PUSH0 REVERT JUMPDEST POP SWAP2 SWAP1 POP JUMP JUMPDEST PUSH1 0x1F DUP3 GT ISZERO PUSH2 0xDE5 JUMPI DUP1 PUSH0 MSTORE PUSH1 0x20 PUSH0 KECCAK256 PUSH1 0x1F DUP5 ADD PUSH1 0x5 SHR DUP2 ADD PUSH1 0x20 DUP6 LT ISZERO PUSH2 0xDC3 JUMPI POP DUP1 JUMPDEST PUSH1 0x1F DUP5 ADD PUSH1 0x5 SHR DUP3 ADD SWAP2 POP JUMPDEST DUP2 DUP2 LT ISZERO PUSH2 0xDE2 JUMPI PUSH0 DUP2 SSTORE PUSH1 0x1 ADD PUSH2 0xDCF JUMP JUMPDEST POP POP JUMPDEST POP POP POP JUMP JUMPDEST DUP2 MLOAD PUSH8 0xFFFFFFFFFFFFFFFF DUP2 GT ISZERO PUSH2 0xE04 JUMPI PUSH2 0xE04 PUSH2 0xD52 JUMP JUMPDEST PUSH2 0xE18 DUP2 PUSH2 0xE12 DUP5 SLOAD PUSH2 0xD66 JUMP JUMPDEST DUP5 PUSH2 0xD9E JUMP JUMPDEST PUSH1 0x20 DUP1 PUSH1 0x1F DUP4 GT PUSH1 0x1 DUP2 EQ PUSH2 0xE4B JUMPI PUSH0 DUP5 ISZERO PUSH2 0xE34 JUMPI POP DUP6 DUP4 ADD MLOAD JUMPDEST PUSH0 NOT PUSH1 0x3 DUP7 SWAP1 SHL SHR NOT AND PUSH1 0x1 DUP6 SWAP1 SHL OR DUP6 SSTORE PUSH2 0xEA2 JUMP JUMPDEST PUSH0 DUP6 DUP2 MSTORE PUSH1 0x20 DUP2 KECCAK256 PUSH1 0x1F NOT DUP7 AND SWAP2 JUMPDEST DUP3 DUP2 LT ISZERO PUSH2 0xE79 JUMPI DUP9 DUP7 ADD MLOAD DUP3 SSTORE SWAP5 DUP5 ADD SWAP5 PUSH1 0x1 SWAP1 SWAP2 ADD SWAP1 DUP5 ADD PUSH2 0xE5A JUMP JUMPDEST POP DUP6 DUP3 LT ISZERO PUSH2 0xE96 JUMPI DUP8 DUP6 ADD MLOAD PUSH0 NOT PUSH1 0x3 DUP9 SWAP1 SHL PUSH1 0xF8 AND SHR NOT AND DUP2 SSTORE JUMPDEST POP POP PUSH1 0x1 DUP5 PUSH1 0x1 SHL ADD DUP6 SSTORE JUMPDEST POP POP POP POP POP POP JUMP JUMPDEST DUP2 DUP4 MSTORE DUP2 DUP2 PUSH1 0x20 DUP6 ADD CALLDATACOPY POP PUSH0 DUP3 DUP3 ADD PUSH1 0x20 SWAP1 DUP2 ADD SWAP2 SWAP1 SWAP2 MSTORE PUSH1 0x1F SWAP1 SWAP2 ADD PUSH1 0x1F NOT AND SWAP1 SWAP2 ADD ADD SWAP1 JUMP JUMPDEST PUSH1 0x1 PUSH1 0x1 PUSH1 0xA0 SHL SUB DUP5 AND DUP2 MSTORE PUSH1 0x40 PUSH1 0x20 DUP3 ADD DUP2 SWAP1 MSTORE PUSH0 SWAP1 PUSH2 0xEF6 SWAP1 DUP4 ADD DUP5 DUP7 PUSH2 0xEAA JUMP JUMPDEST SWAP6 SWAP5 POP POP POP POP POP JUMP JUMPDEST PUSH0 PUSH1 0x20 DUP3 DUP5 SUB SLT ISZERO PUSH2 0xF0F JUMPI PUSH0 DUP1 REVERT JUMPDEST POP MLOAD SWAP2 SWAP1 POP JUMP JUMPDEST PUSH1 0x40 DUP2 MSTORE PUSH0 PUSH2 0xF29 PUSH1 0x40 DUP4 ADD DUP6 DUP8 PUSH2 0xEAA JUMP JUMPDEST SWAP1 POP DUP3 PUSH1 0x20 DUP4 ADD MSTORE SWAP5 SWAP4 POP POP POP POP JUMP INVALID LOG2 PUSH5 0x6970667358 0x22 SLT KECCAK256 DUP3 PUSH5 0xB399F8734B 0xC7 KECCAK256 PUSH27 0xC7AAF95C72077283D50751817DBC965A766D476BC75064736F6C63 NUMBER STOP ADDMOD XOR STOP CALLER "},"methodIdentifiers":{"admin()":"f851a440","authorizeIssuer(address)":"436693d5","authorizedIssuers(address)":"f731fa0f","certCount()":"d4e207a2","certificates(uint256)":"663b3e22","deauthorizeIssuer(address)":"3a71daf4","getStudentCerts(address)":"a041d2ca","hashToId(bytes32)":"095f0773","issueCertificate(bytes32,string,address,string)":"4156d567","lastCertHash(address)":"96c73534","revokeCertificate(uint256)":"06f5497e","sbtContract()":"06158360","setSBTContract(address)":"30095f89","studentCerts(address,uint256)":"728f133b","verifyCertificate(bytes32)":"850c1768"}}}}}