{
  "_format": "hh-sol-artifact-1",
  "contractName": "CertRegistry",
  "sourceName": "contracts/CertRegistry.sol",
  "abi": [
    {
      "inputs": [],
      "stateMutability": "nonpayable",
      "type": "constructor"
    },
    {
      "anonymous": false,
      "inputs": [
        {
          "indexed": true,
          "internalType": "uint256",
          "name": "id",
          "type": "uint256"
        },
        {
          "indexed": true,
          "internalType": "bytes32",
          "name": "certHash",
          "type": "bytes32"
        },
        {
          "indexed": false,
          "internalType": "string",
          "name": "ipfsCID",
          "type": "string"
        },
        {
          "indexed": true,
          "internalType": "address",
          "name": "issuer",
          "type": "address"
        },
        {
          "indexed": false,
          "internalType": "uint256",
          "name": "timestamp",
          "type": "uint256"
        }
      ],
      "name": "CertificateIssued",
      "type": "event"
    },
    {
      "anonymous": false,
      "inputs": [
        {
          "indexed": true,
          "internalType": "uint256",
          "name": "id",
          "type": "uint256"
        }
      ],
      "name": "CertificateRevoked",
      "type": "event"
    },
    {
      "anonymous": false,
      "inputs": [
        {
          "indexed": true,
          "internalType": "address",
          "name": "issuer",
          "type": "address"
        }
      ],
      "name": "IssuerAuthorized",
      "type": "event"
    },
    {
      "anonymous": false,
      "inputs": [
        {
          "indexed": true,
          "internalType": "address",
          "name": "issuer",
          "type": "address"
        }
      ],
      "name": "IssuerDeauthorized",
      "type": "event"
    },
    {
      "inputs": [],
      "name": "admin",
      "outputs": [
        {
          "internalType": "address",
          "name": "",
          "type": "address"
        }
      ],
      "stateMutability": "view",
      "type": "function"
    },
    {
      "inputs": [
        {
          "internalType": "address",
          "name": "_issuer",
          "type": "address"
        }
      ],
      "name": "authorizeIssuer",
      "outputs": [],
      "stateMutability": "nonpayable",
      "type": "function"
    },
    {
      "inputs": [
        {
          "internalType": "address",
          "name": "",
          "type": "address"
        }
      ],
      "name": "authorizedIssuers",
      "outputs": [
        {
          "internalType": "bool",
          "name": "",
          "type": "bool"
        }
      ],
      "stateMutability": "view",
      "type": "function"
    },
    {
      "inputs": [],
      "name": "certCount",
      "outputs": [
        {
          "internalType": "uint256",
          "name": "",
          "type": "uint256"
        }
      ],
      "stateMutability": "view",
      "type": "function"
    },
    {
      "inputs": [
        {
          "internalType": "uint256",
          "name": "",
          "type": "uint256"
        }
      ],
      "name": "certificates",
      "outputs": [
        {
          "internalType": "bytes32",
          "name": "certHash",
          "type": "bytes32"
        },
        {
          "internalType": "string",
          "name": "ipfsCID",
          "type": "string"
        },
        {
          "internalType": "address",
          "name": "issuer",
          "type": "address"
        },
        {
          "internalType": "uint256",
          "name": "timestamp",
          "type": "uint256"
        },
        {
          "internalType": "bool",
          "name": "revoked",
          "type": "bool"
        }
      ],
      "stateMutability": "view",
      "type": "function"
    },
    {
      "inputs": [
        {
          "internalType": "address",
          "name": "_issuer",
          "type": "address"
        }
      ],
      "name": "deauthorizeIssuer",
      "outputs": [],
      "stateMutability": "nonpayable",
      "type": "function"
    },
    {
      "inputs": [
        {
          "internalType": "address",
          "name": "_student",
          "type": "address"
        }
      ],
      "name": "getStudentCerts",
      "outputs": [
        {
          "internalType": "uint256[]",
          "name": "",
          "type": "uint256[]"
        }
      ],
      "stateMutability": "view",
      "type": "function"
    },
    {
      "inputs": [
        {
          "internalType": "bytes32",
          "name": "",
          "type": "bytes32"
        }
      ],
      "name": "hashToId",
      "outputs": [
        {
          "internalType": "uint256",
          "name": "",
          "type": "uint256"
        }
      ],
      "stateMutability": "view",
      "type": "function"
    },
    {
      "inputs": [
        {
          "internalType": "bytes32",
          "name": "_payloadHash",
          "type": "bytes32"
        },
        {
          "internalType": "string",
          "name": "_ipfsCID",
          "type": "string"
        },
        {
          "internalType": "address",
          "name": "_student",
          "type": "address"
        },
        {
          "internalType": "string",
          "name": "_metadataURI",
          "type": "string"
        }
      ],
      "name": "issueCertificate",
      "outputs": [
        {
          "internalType": "uint256",
          "name": "",
          "type": "uint256"
        }
      ],
      "stateMutability": "nonpayable",
      "type": "function"
    },
    {
      "inputs": [
        {
          "internalType": "address",
          "name": "",
          "type": "address"
        }
      ],
      "name": "lastCertHash",
      "outputs": [
        {
          "internalType": "bytes32",
          "name": "",
          "type": "bytes32"
        }
      ],
      "stateMutability": "view",
      "type": "function"
    },
    {
      "inputs": [
        {
          "internalType": "uint256",
          "name": "_id",
          "type": "uint256"
        }
      ],
      "name": "revokeCertificate",
      "outputs": [],
      "stateMutability": "nonpayable",
      "type": "function"
    },
    {
      "inputs": [],
      "name": "sbtContract",
      "outputs": [
        {
          "internalType": "contract CertSBT",
          "name": "",
          "type": "address"
        }
      ],
      "stateMutability": "view",
      "type": "function"
    },
    {
      "inputs": [
        {
          "internalType": "address",
          "name": "_sbtAddress",
          "type": "address"
        }
      ],
      "name": "setSBTContract",
      "outputs": [],
      "stateMutability": "nonpayable",
      "type": "function"
    },
    {
      "inputs": [
        {
          "internalType": "address",
          "name": "",
          "type": "address"
        },
        {
          "internalType": "uint256",
          "name": "",
          "type": "uint256"
        }
      ],
      "name": "studentCerts",
      "outputs": [
        {
          "internalType": "uint256",
          "name": "",
          "type": "uint256"
        }
      ],
      "stateMutability": "view",
      "type": "function"
    },
    {
      "inputs": [
        {
          "internalType": "bytes32",
          "name": "_certHash",
          "type": "bytes32"
        }
      ],
      "name": "verifyCertificate",
      "outputs": [
        {
          "internalType": "bool",
          "name": "exists",
          "type": "bool"
        },
        {
          "internalType": "uint256",
          "name": "id",
          "type": "uint256"
        },
        {
          "internalType": "string",
          "name": "ipfsCID",
          "type": "string"
        },
        {
          "internalType": "address",
          "name": "issuer",
          "type": "address"
        },
        {
          "internalType": "uint256",
          "name": "timestamp",
          "type": "uint256"
        },
        {
          "internalType": "bool",
          "name": "revoked",
          "type": "bool"
        }
      ],
      "stateMutability": "view",
      "type": "function"
    }
  ],
  "bytecode": "0x608060405234801561000f575f80fd5b50600680546001600160a01b031916339081179091555f908152600360205260409020805460ff19166001179055610f6f8061004a5f395ff3fe608060405234801561000f575f80fd5b50600436106100f0575f3560e01c8063663b3e2211610093578063a041d2ca11610063578063a041d2ca1461022d578063d4e207a21461024d578063f731fa0f14610255578063f851a44014610287575f80fd5b8063663b3e22146101b2578063728f133b146101d6578063850c1768146101e957806396c735341461020e575f80fd5b806330095f89116100ce57806330095f89146101665780633a71daf4146101795780634156d5671461018c578063436693d51461019f575f80fd5b806306158360146100f457806306f5497e14610124578063095f077314610139575b5f80fd5b600754610107906001600160a01b031681565b6040516001600160a01b0390911681526020015b60405180910390f35b610137610132366004610ab6565b61029a565b005b610158610147366004610ab6565b60026020525f908152604090205481565b60405190815260200161011b565b610137610174366004610ae8565b61040c565b610137610187366004610ae8565b610458565b61015861019a366004610b4d565b6104ca565b6101376101ad366004610ae8565b61079f565b6101c56101c0366004610ab6565b610814565b60405161011b959493929190610c17565b6101586101e4366004610c57565b6108d6565b6101fc6101f7366004610ab6565b610901565b60405161011b96959493929190610c7f565b61015861021c366004610ae8565b60056020525f908152604090205481565b61024061023b366004610ae8565b610a4d565b60405161011b9190610cc8565b6101585f5481565b610277610263366004610ae8565b60036020525f908152604090205460ff1681565b604051901515815260200161011b565b600654610107906001600160a01b031681565b5f811180156102aa57505f548111155b6102f45760405162461bcd60e51b8152602060048201526016602482015275125b9d985b1a590818d95c9d1a599a58d85d1948125160521b60448201526064015b60405180910390fd5b5f818152600160205260409020600201546001600160a01b031633148061032557506006546001600160a01b031633145b6103715760405162461bcd60e51b815260206004820152601860248201527f4e6f7420617574686f72697a656420746f207265766f6b65000000000000000060448201526064016102eb565b5f8181526001602052604090206004015460ff16156103c45760405162461bcd60e51b815260206004820152600f60248201526e105b1c9958591e481c995d9bdad959608a1b60448201526064016102eb565b5f818152600160208190526040808320600401805460ff19169092179091555182917fefa6c5f47ac2523bb4db18032377bf7fdce0fa9d86eddcae1ca9bba38be615d791a250565b6006546001600160a01b031633146104365760405162461bcd60e51b81526004016102eb90610d0b565b600780546001600160a01b0319166001600160a01b0392909216919091179055565b6006546001600160a01b031633146104825760405162461bcd60e51b81526004016102eb90610d0b565b6001600160a01b0381165f81815260036020526040808220805460ff19169055517f8f3e6dced744d75443e2f2eb94962b368491dc80ec07cd3a3f7896069b6c452c9190a250565b335f9081526003602052604081205460ff166105195760405162461bcd60e51b815260206004820152600e60248201526d139bdd08185d5d1a1bdc9a5e995960921b60448201526064016102eb565b335f9081526005602090815260408083205481518084018c90528083019190915281518082038301815260609091018252805190830120808452600290925290912054156105a95760405162461bcd60e51b815260206004820152601d60248201527f43657274206861736820636f6c6c6973696f6e2f6475706c696361746500000060448201526064016102eb565b5f805490806105b783610d2e565b91905055506040518060a0016040528082815260200188888080601f0160208091040260200160405190810160405280939291908181526020018383808284375f9201829052509385525050336020808501919091524260408086019190915260609094018390528254835260018082529390922084518155918401519192830191610644915082610dea565b50604082810151600283810180546001600160a01b0319166001600160a01b03938416179055606085015160038501556080909401516004938401805460ff19169115159190911790555f805486825260209586528382208190558a83168252938552828120805460018101825590825285822001939093553383526005909352902082905560075416156107495760075460405163d0def52160e01b81526001600160a01b039091169063d0def5219061070790889088908890600401610ed2565b6020604051808303815f875af1158015610723573d5f803e3d5ffd5b505050506040513d601f19601f820116820180604052508101906107479190610eff565b505b336001600160a01b0316815f547f8b7b3939345c2d3402a3887240cbe3d70c3ac59b216d7f49869e5e7a4d347c0a8a8a4260405161078993929190610f16565b60405180910390a450505f549695505050505050565b6006546001600160a01b031633146107c95760405162461bcd60e51b81526004016102eb90610d0b565b6001600160a01b0381165f81815260036020526040808220805460ff19166001179055517f8b4006ca14f23d4e7aa8d120d1ab7c3761d650eefac1a5d6732dbea94b54ea249190a250565b600160208190525f91825260409091208054918101805461083490610d66565b80601f016020809104026020016040519081016040528092919081815260200182805461086090610d66565b80156108ab5780601f10610882576101008083540402835291602001916108ab565b820191905f5260205f20905b81548152906001019060200180831161088e57829003601f168201915b505050506002830154600384015460049094015492936001600160a01b039091169290915060ff1685565b6004602052815f5260405f2081815481106108ef575f80fd5b905f5260205f20015f91509150505481565b5f81815260026020526040812054606082808084810361093d57505060408051602081019091525f808252945084935091508290508080610a44565b5f858152600160208181526040808420815160a0810190925280548252928301805491939284019161096e90610d66565b80601f016020809104026020016040519081016040528092919081815260200182805461099a90610d66565b80156109e55780601f106109bc576101008083540402835291602001916109e5565b820191905f5260205f20905b8154815290600101906020018083116109c857829003601f168201915b505050918352505060028201546001600160a01b0316602080830191909152600383015460408084019190915260049093015460ff161515606092830152830151918301519083015160809093015160019a5091975095509093509150505b91939550919395565b6001600160a01b0381165f90815260046020908152604091829020805483518184028101840190945280845260609392830182828015610aaa57602002820191905f5260205f20905b815481526020019060010190808311610a96575b50505050509050919050565b5f60208284031215610ac6575f80fd5b5035919050565b80356001600160a01b0381168114610ae3575f80fd5b919050565b5f60208284031215610af8575f80fd5b610b0182610acd565b9392505050565b5f8083601f840112610b18575f80fd5b50813567ffffffffffffffff811115610b2f575f80fd5b602083019150836020828501011115610b46575f80fd5b9250929050565b5f805f805f8060808789031215610b62575f80fd5b86359550602087013567ffffffffffffffff80821115610b80575f80fd5b610b8c8a838b01610b08565b9097509550859150610ba060408a01610acd565b94506060890135915080821115610bb5575f80fd5b50610bc289828a01610b08565b979a9699509497509295939492505050565b5f81518084525f5b81811015610bf857602081850181015186830182015201610bdc565b505f602082860101526020601f19601f83011685010191505092915050565b85815260a060208201525f610c2f60a0830187610bd4565b6001600160a01b03959095166040830152506060810192909252151560809091015292915050565b5f8060408385031215610c68575f80fd5b610c7183610acd565b946020939093013593505050565b861515815285602082015260c060408201525f610c9f60c0830187610bd4565b6001600160a01b03959095166060830152506080810192909252151560a0909101529392505050565b602080825282518282018190525f9190848201906040850190845b81811015610cff57835183529284019291840191600101610ce3565b50909695505050505050565b6020808252600990820152682737ba1030b236b4b760b91b604082015260600190565b5f60018201610d4b57634e487b7160e01b5f52601160045260245ffd5b5060010190565b634e487b7160e01b5f52604160045260245ffd5b600181811c90821680610d7a57607f821691505b602082108103610d9857634e487b7160e01b5f52602260045260245ffd5b50919050565b601f821115610de557805f5260205f20601f840160051c81016020851015610dc35750805b601f840160051c820191505b81811015610de2575f8155600101610dcf565b50505b505050565b815167ffffffffffffffff811115610e0457610e04610d52565b610e1881610e128454610d66565b84610d9e565b602080601f831160018114610e4b575f8415610e345750858301515b5f19600386901b1c1916600185901b178555610ea2565b5f85815260208120601f198616915b82811015610e7957888601518255948401946001909101908401610e5a565b5085821015610e9657878501515f19600388901b60f8161c191681555b505060018460011b0185555b505050505050565b81835281816020850137505f828201602090810191909152601f909101601f19169091010190565b6001600160a01b03841681526040602082018190525f90610ef69083018486610eaa565b95945050505050565b5f60208284031215610f0f575f80fd5b5051919050565b604081525f610f29604083018587610eaa565b905082602083015294935050505056fea26469706673582212208264b399f8734bc7207ac7aaf95c72077283d50751817dbc965a766d476bc75064736f6c63430008180033",
  "linkReferences": {},
  "deployedLinkReferences": {}
}